:020000040800F2
:10000000484F00205D020008B71A0008D117000809
:10001000B51A00088D030008ED2500080000000057
:100020000000000000000000000000009D0100082A
:10003000FD03000800000000F9010008311E00085F
:1000400077020008770200087702000877020008AC
:10005000770200087702000877020008770200089C
:10006000770200087702000877020008770200088C
:10007000770200087702000877020008770200087C
:10008000770200087702000877020008770200086C
:10009000770200087702000877020008770200085C
:1000A000770200087702000877020008770200084C
:1000B000351F000877020008770200087702000861
:1000C000770200087702000877020008770200082C
:1000D0007702000877020008E1250008770200088F
:1000E000770200087702000877020008770200080C
:1000F00077020008770200087702000877020008FC
:1001000077020008770200087702000877020008EB
:1001100077020008770200087702000877020008DB
:1001200077020008770200087702000877020008CB
:1001300077020008770200087702000877020008BB
:1001400077020008770200087702000877020008AB
:10015000770200087702000877020008770200089B
:10016000770200087702000877020008770200088B
:1001700077020008770200087702000800000000FC
:100180007702000877020008DFF80CD000F0ECF8E6
:1001900000480047F92C0008484F00202C4B1968F4
:1001A0000868B0E8F04F80F30988BFF36F8F4FF015
:1001B000000080F3118870470000000008480068C4
:1001C000006880F308884FF0000080F3148862B65E
:1001D00061B6BFF34F8FBFF36F8F00DF00BF00BF6B
:1001E00008ED00E0DFF80C00016841F470010160E7
:1001F000704700BF88ED00E0EFF30980BFF36F8F19
:10020000134B1A681EF0100F08BF20ED108A20E96A
:10021000F04F106009B44FF0500080F31188BFF325
:100220004F8FBFF36F8F03F059FD4FF0000080F345
:10023000118809BC19680868B0E8F04F1EF0100F6B
:1002400008BFB0EC108A80F30988BFF36F8F704746
:1002500054000020EFF305807047000006488047F7
:1002600006480047FEE7FEE7FEE7FEE7FEE7FEE79B
:10027000FEE7FEE7FEE7FEE7E11E00088901000851
:100280002DE9F05F0546002092469B4688460646CB
:10029000814640241BE0284641464746224600F05E
:1002A00053F853465A46C01A914110D31146184686
:1002B000224600F03AF82D1A67EB01084F46224615
:1002C0000120002100F031F817EB00094E41201EFB
:1002D000A4F10104DFDC484631462A464346BDE826
:1002E000F09F40EA01039B0703D009E008C9121FF1
:1002F00008C0042AFAD203E011F8013B00F8013BE0
:10030000521EF9D27047D2B201E000F8012B491E0B
:10031000FBD270470022F6E710B513460A460446A2
:100320001946FFF7F0FF204610BD202A04DB203AD3
:1003300000FA02F1002070479140C2F1200320FA38
:1003400003F3194390407047202A04DB203A21FA36
:1003500002F00021704721FA02F3D040C2F12002DE
:100360009140084319467047064C074D06E0E06887
:1003700040F0010394E8070098471034AC42F6D3EC
:10038000FFF706FFF047000810480008FEE70000EE
:10039000054810B544780021204601F003FC641E96
:1003A00014F0FF04F7D110BD0A000020064A10B572
:1003B00053680649064C0968B1FBF4F141435068A3
:1003C000C01A8842FBD310BD001000E0500000208E
:1003D00040420F0007480168C9010AD4016841F092
:1003E00080710160044800214160016841F0010111
:1003F00001607047FCED00E0001000E07047000075
:100400004FF40047DFF86080184C194D4FF4005945
:10041000FE104FF47A7A012002F030FD3946404652
:1004200000F03CF960623146284600F037F90028B8
:10043000F1D1A078394680F00100A070404600F06C
:1004400032F94946284600F02EF9642000E00A20DF
:1004500000F03AF83146284600F020F90028F6D09E
:10046000504600F031F8D6E7000C024010000020A2
:10047000000402400A4CA07861788843FBD001F068
:10048000A8F9FFF785FF02F03BFB02F039FB02F011
:10049000F7F802F015FA012002F0F0FCEBE700009B
:1004A0001000002090F83510022903D0802141650A
:1004B00001207047052180F835100068016821F09F
:1004C000010101600020704770B5044600F0F8F8A3
:1004D0000546601C02D004480078044400F0F0F89F
:1004E000401BA042FAD370BD440000202DE9F84F14
:1004F000DFF87CB100224FF001084FF0030A4FF003
:100500000F090BF1040E00BF0B6808FA02F4234038
:10051000A3426ED14D68022D01D0122D0ED1D50807
:1005200000EB850CDCF820505607F70E09FA07F6A9
:10053000B5430E69BE402E43CCF8206006685500D6
:100540000F790AFA05FC07F0030726EA0C06AF400C
:10055000374307604E68012E05D0022E03D0112EBE
:1005600001D0122E0ED18668CF6826EA0C06AF4065
:10057000374387604668A6430C79C4F3001494405F
:1005800034434460C6688C6826EA0C06AC403443A9
:10059000C4604C68E40065D5364C256845F4804558
:1005A0002560246822F0030504F480440094324C52
:1005B0002E19D6F8084895072F0F09FA07F5AC430E
:1005C0002E4DA84201D1002524E02D4DA84201D195
:1005D00001251FE02B4DA84201D102251AE02A4D2A
:1005E000A84201D1032515E0284DA84202D10425D7
:1005F00010E037E0264DA84201D105250AE0254D3F
:10060000A84201D1062505E0234DA84201D10725C6
:1006100000E00825BD402543C6F80858DBF8004037
:100620005D464E689C43F60300D51C432C60DEF803
:10063000004075464E689C43B60300D51C432C60B1
:100640000B4D08352C684E689C43F60200D51C43C0
:100650002C60074D0C352C684E689C43B60200D5C3
:100660001C432C60521C102AFFF44EAFBDE8F88FDB
:10067000003C01404438024000300140000002408C
:100680000004024000080240000C0240001002403A
:100690000014024000180240001C0240006908409B
:1006A00000D001207047426931EA020200D10904FA
:1006B000816170470AB1816170470904FBE700005E
:1006C00001488068704700004400002002488168AB
:1006D0000278114481607047440000200B4810B537
:1006E000016841F400710160016841F480610160BA
:1006F000016841F480710160032000F08DF8002052
:1007000000F006F800F03EF8002010BD003C02406A
:1007100010B5014688B000221C2000F05DF81C20B6
:1007200000F04CF814480024016841F00101016018
:10073000006805A900F001000690684600F016F96F
:1007400000F034F90D494000B0FBF1F10C484FF0D6
:100750008042491E026040F2E732C0E90324C0E94A
:10076000011400F068FC10B1012008B010BD04486D
:1007700000F07DFCF9E700004038024040420F00E5
:10078000300200200C4882B0016841F480410160D1
:10079000006800F4804000900748001F016841F0A5
:1007A000805101600068002200F0805000900F210D
:1007B000901E02B000F010B844380240002809DB57
:1007C00000F01F02012191404009800000F1E0206B
:1007D000C0F8001170470000F0B40E4B1B680C46C7
:1007E000C3F30223C3F10705042D00D90425191D05
:1007F000072901D2002300E0DB1E012606FA05F1DD
:10080000491E214099409E40761E16403143F0BC5F
:1008100001F0EDBE0CED00E0064900F007020868AB
:100820004FF6FF03184040EA0220034A10430860D5
:10083000704700000CED00E00000FA052DE9F047DC
:100840000E46050065D0DFF81481D8F80000F7B235
:1008500000F00F00B04207D288F80070D8F800000E
:1008600000F00F00B04254D128683D4C810712D5EA
:10087000400703D5206840F4E05020602878000746
:1008800003D5206840F4604020602068A96820F00B
:10089000F000084320602878C0072DD030496868F0
:1008A0000839012812D0022813D0032811D0096872
:1008B000890700292DDA216821F003010143216015
:1008C000FFF7FEFE814641F2883A0EE0096889038F
:1008D000EFE709688901ECE7FFF7F2FEA0EB0901F9
:1008E000514502D90320BDE8F0872068696800F00F
:1008F0000C00B0EB810FEFD1D8F80010404601F0AA
:100900000F01B14207D90770006800F00F00B04234
:1009100001D00120E7E72878400705D52068E9687D
:1009200020F4E050084320602878000706D52068AE
:10093000296920F4604040EAC100206000F056F8C8
:100940002168084AC1F30311515CC8400649086098
:100950000020FFF7DDFE0020C5E70000003C02405C
:1009600008380240BC470008500000200F220260F7
:100970000C4A136803F003034360136803F0F003A9
:100980008360136803F4E053C36012684FF4E053CC
:1009900003EAD20202610448006800F00F00086018
:1009A0007047000008380240003C024004480549F6
:1009B00000680968044AC1F38221515CC84070474D
:1009C0005000002008380240CC4700080448054980
:1009D00000680968044AC1F34231515CC84070475D
:1009E0005000002008380240CC470008104810B5DD
:1009F000006810F00C010F4818D0042916D00829FF
:100A000014D10B4C241F216801F03F02216821689A
:100A10000023C1F38811A1FB0001FFF731FC21681D
:100A2000C1F30141491C4900B0FBF1F010BD0000C9
:100A3000083802400024F4002DE9F84F050076D074
:100A40002878DFF8F8B2BE4CC00749D0DBF80010B8
:100A50005846C1F38101012908D00068C0F3810024
:100A600002280AD1201D0068400206D520688003B4
:100A700036D568680028E2D032E06868B0F5803F7B
:100A800010D0B0F5A02F206810D020F48030206066
:100A9000206820F4802020606868A0B1FFF710FE75
:100AA00006460CE0206840F48030F4E740F48020F3
:100AB0002060F7E7FFF704FE801B642873D82068E6
:100AC0008003F7D50CE0FFF7FBFD064605E000BF0D
:100AD000FFF7F6FD801B6428F0D820688003F7D468
:100AE0002878DFF8608280074FF000093ED5DBF8F8
:100AF0000010584611F00C0F09D00068C0F38100B7
:100B000002280BD18D48001F0068400206D42068DF
:100B1000800715D5E868012809D111E0E868B8B167
:100B20000120C8F80000FFF7CBFD064605E002E112
:100B3000FFF7C6FD801B0228C0D820688007F7D5C4
:100B40002068296920F0F80040EAC10020600DE02B
:100B5000C8F80090FFF7B4FD064604E0FFF7B0FDCB
:100B6000801B02281FD820688007F7D42878000748
:100B700022D5724E744869696C3671B101210160E9
:100B8000FFF79EFD074604E0FFF79AFDC01B022811
:100B900009D830688007F7D50EE0C0F80090FFF75D
:100BA0008FFD074605E083E0FFF78AFDC01B0228A2
:100BB0007ED830688007F7D42878400768D5DFF8FA
:100BC0007CA100270AF1380ADAF80000C0000BD433
:100BD000DAF8001041F08051CAF80010DAF800008D
:100BE000012700F080500090584E3068C00510D4A6
:100BF000306840F480703060FFF762FD009005E0DF
:100C0000FFF75EFD0099401A022851D83068C005F0
:100C1000F6D54A4EA868683601280FD005283068F6
:100C200010D020F001003060306820F00400306007
:100C3000A868B8B1FFF744FD00900FE0306840F0BD
:100C40000100F4E740F004003060F7E7FFF738FDFB
:100C50000099411A41F28830814264D83068800797
:100C6000F4D50EE0FFF72CFD009007E0FFF728FD1C
:100C70000099411A41F28830814254D83068800787
:100C8000F4D42FB1DAF8001021F08051CAF8001026
:100C9000A869C0B3DBF80010C1F3810102294AD072
:100CA0000228484607D0C8F86000FFF709FD00E0B9
:100CB00039E005463AE04746C8F86000FFF700FD16
:100CC000064604E0FFF7FCFC801B02282BD82068B6
:100CD0008001F7D4D5E907010843A96A1C4A4908ED
:100CE00002EB01416A6A41EA8211084395F82C102F
:100CF00040EA01611148001F016001203866FFF7DA
:100D0000DFFC054605E014E0FFF7DAFC401B022893
:100D100009D820688001F7D50BE000BFFFF7D0FCB1
:100D2000401B022802D90320BDE8F88F206880010B
:100D3000F4D40020F8E70120F6E70000083802406C
:100D40000038024000004742800E474200700040D9
:100D50000000FFFF70B5040005D00025A56294F8DF
:100D6000510010B106E0012070BD84F850502046BB
:100D700000F030F8022084F851002068016821F06A
:100D800040010160D4E901010843D4E90312114391
:100D9000084361690843218B01F400710843E1694C
:100DA0000843216A0843A16A084321680860A069D2
:100DB000042101EA1040616A084321684860206804
:100DC000C16921F40061C1616565012084F85100A9
:100DD000002070BD10B586B0044614216846FFF7A8
:100DE00099FA14492068884221D1134800210268E9
:100DF00042F400420260006800F4004005900E4892
:100E00001038026842F004020260006800F004003A
:100E100005904FF4A05000900220CDE9010103207D
:100E200003900620049069460448FFF75FFB06B074
:100E300010BD0000003C0040403802400008024065
:100E40002DE9F84F044690F8500000271D4616463D
:100E5000894601280DD04FF0010B84F850B0FFF700
:100E60002FFC804694F85100BA46012804D002278E
:100E70008EE00220BDE8F88FB9F1000F7DD0002E82
:100E80007BD0032084F85100C4F854A0C4F83090FB
:100E9000A686E686C4F838A0A4F83CA0A4F83EA034
:100EA000C4F844A0C4F840A0A068B0F5004F04D135
:100EB0002068016841F480410160206801684906AA
:100EC00003D4016841F040010160E068B0F5006FB3
:100ED000606803D030B3012E24D040E008B1012E69
:100EE0001CD1206B21680088C86006E020688168FA
:100EF000890709D5216B0988C160206B801C20639C
:100F0000E08E401EE08609E0FFF7DAFBA0EB080068
:100F1000A84202D3681C01D031E07DB3E08E0028E6
:100F2000E4D11FE0206B21680078087306E0206898
:100F30008168890709D5216B09780173206B401CF2
:100F40002063E08E401EE08609E0FFF7B9FBA0EBCE
:100F50000800A84202D3681C01D010E075B1E08EF1
:100F60000028E4D142462946204600F0A5FD08B1FC
:100F700020206065A06820B107E008E0FFE70327B4
:100F800006E02068C16880680090606D00B10127AC
:100F900084F851B084F850A038466BE7704770472A
:100FA00010B590F83C20012A22D0012280F83C2084
:100FB000CA688C6822F4407222434C6822F4806232
:100FC00022430C6822F4006222430C6922F480520E
:100FD00022434C6922F400522243C969002322F4BF
:100FE00080420A4301684A6480F83C30002010BD0A
:100FF000022010BD70B590F83C20012A19D00124C0
:1010000000F83C4F0222427050F83C3C5A689D6800
:1010100022F070060A684968324325F080052943AA
:101020005A6050F83C2C91604470002101700846D1
:1010300070BD022070BD10B5040003D094F83D00CF
:1010400010B107E0012010BD002084F83C002046CC
:1010500000F00CF8022084F83D00211D206800F00B
:101060006FFF012084F83D00002010BD704701682B
:10107000CA6842F00102CA600068816801F0070195
:10108000062903D0016841F001010160002070478A
:10109000704770B50446006801694FF00005C94308
:1010A000890715D4C168C943890711D4E91E0161B4
:1010B00001202077206880698007204602D0FFF752
:1010C000E7FF04E000F0DAF8204600F07BF925772E
:1010D00020680169C943490717D4C168C943490752
:1010E00013D46FF004010161022020772068806929
:1010F00010F4407F204602D0FFF7CAFF04E000F062
:10110000BDF8204600F05EF9257720680169C943E3
:10111000090716D4C168C943090712D46FF0080142
:101120000161042020772068C0698007204602D032
:10113000FFF7AEFF04E000F0A1F8204600F042F90E
:10114000257720680169C943C90617D4C168C94316
:10115000C90613D46FF010010161082020772068C0
:10116000C06910F4407F204602D0FFF791FF04E0F1
:1011700000F084F8204600F025F925772068016901
:10118000C943C90708D1C168C943C90704D1891E29
:101190000161204600F068F920680169C943090629
:1011A00009D4C168C943090605D46FF08001016103
:1011B0002046FFF7F3FE20680169C943490609D4B8
:1011C000C168C943490605D46FF04001016120465A
:1011D00000F051F920680169C94389060BD4C16840
:1011E000C943890607D46FF0200101612046BDE89C
:1011F0007040FFF7D4BE70BD10B586B00446142110
:101200006846FFF787F82368174C00201749022229
:10121000A34211D10B6843F010030B60096801F081
:101220001001059111020091CDE901200120CDE9C5
:10123000032069460E4813E00E4CA34212D10B68FE
:1012400043F004030B60096801F00401059140219B
:101250000091CDE9012003200390049069460648DF
:10126000FFF744F906B010BD0000014030380240DD
:10127000001002400004014000080240704770B5B1
:10128000044690F83C000D4601280DD0012684F854
:101290003C60022084F83D0042B1042A18D0082A9C
:1012A0002AD00C2A4DD139E0022070BD206800F010
:1012B000B9FE2068816941F0080181612068816977
:1012C00021F004018161206881692A69114311E0DC
:1012D000206800F0D7FE2068816941F400618161D7
:1012E0002068816921F480618161206881692A69AF
:1012F00041EA0221816124E0206800F0F9FE2068C3
:10130000C16941F00801C1612068C16921F004018F
:10131000C1612068C1692A69114311E0206800F0A9
:101320001BFF2068C16941F40061C1612068C16987
:1013300021F48061C1612068C1692A6941EA022102
:10134000C16184F83D60002084F83C0070BD10B598
:10135000040003D094F83D0010B107E0012010BD57
:10136000002084F83C00204600F00CF8022084F8AD
:101370003D00211D206800F0E3FD012084F83D00C0
:10138000002010BD08B50C4A01680C48914207D1F5
:10139000016841F001010160006800F0010009E00E
:1013A000074A914207D1016841F0020101600068DB
:1013B00000F00200009008BD0000014044380240E7
:1013C000000401407047000010B504460068012287
:1013D00000F01AFE0B492068884202D00A49884270
:1013E00003D1416C41F4004141642068816801F0FF
:1013F0000701062903D0016841F0010101600020C6
:1014000010BD0000000001400004014010B504467A
:101410000068002200F0F8FD114841F21112216825
:101420009310814202D00F48814209D1086A1042CC
:1014300006D1086A184203D1486C20F40040486481
:101440002068016A114206D1016A194203D101687C
:1014500021F001010160012084F83D00002010BD51
:1014600000000140000401400068B0F1804F01D14C
:10147000FFF72CB9704770477047000070B50268DD
:1014800004461068D168536910F00F0F50D003F074
:10149000010501F4907635435DD0C20705D0CA0539
:1014A00003D5E26B42F00102E263420705D5DA0799
:1014B00003D0E26B42F00202E263820705D5DA074D
:1014C00003D0E26B42F00402E263020705D5DA07BB
:1014D00003D0E26B42F00802E263E26B002A33D0F1
:1014E000800604D5880602D5204600F073FE2068E9
:1014F0004069E16BC0F38010090700D428B320468F
:1015000000F05AFE2068416949061AD5416921F068
:1015100040014161606BA0B11B490165606BFEF742
:10152000C1FF002810D0606B016DBDE87040084716
:10153000830610D58B060ED52046BDE8704000F01E
:1015400049BE2046FFF798FF70BD2046FFF794FF85
:101550000020E06370BD030606D50B0604D52046C7
:10156000BDE8704000F0D8BF4006F3D54806F1D57D
:10157000D168204621F04001D160202184F8391043
:1015800000F025F970BD0000A921000870B5040025
:1015900004D094F83900002510B106E0012070BD98
:1015A00084F83850204600F023F8242084F83900CD
:1015B0002068C16821F40051C160204600F056FE49
:1015C0002068016921F4904101612068416921F09E
:1015D0002A0141612068C16841F40051C160E5639E
:1015E000202084F8390084F83A00002070BD000003
:1015F000F0B587B0044614216846FEF78BFE2B4BEE
:1016000022682B49022401250326072729489A42EC
:1016100019D1274A1432136843F01003136012687B
:1016200002F0100205920A6842F001020A6009689D
:1016300001F00101059171028DE8F2006946FEF7A3
:1016400055FF07B0F0BD1C4B9A42FAD1184A103230
:10165000136843F400331360126802F400320592F9
:101660000A6842F001020A600A6802F0010205926B
:101670000A6842F008020A60096801F00801059151
:1016800008218DE8F2006946FEF730FF20208DE842
:10169000F10069460948FEF729FF002206212620AD
:1016A000FFF79AF82620FFF789F8CAE700100140F3
:1016B000303802400000024000440040000C02406C
:1016C00090F83A30202B22D1F9B1F2B190F83830AD
:1016D000012B1CD081628285C2850021C163222238
:1016E00080F83A2080F838100168CA6842F48072A5
:1016F000CA6001684A6942F001024A610068C16833
:1017000041F02001C1600020704701207047022095
:10171000704770472DE9F843044690F839001F469A
:1017200016460D46202850D1A5B19EB194F8380038
:1017300001284AD0012084F838004FF00008C4F88E
:101740003C80212084F83900FEF7BAFFA684814648
:10175000E68426E00120BDE8F883E08C401EE084AA
:10176000A0684B46B0F5805F4FF000024FF080015B
:101770002046009703D000F000FFE8B90DE000F02C
:10178000FCFEC8B928882168C0F3080048602069B9
:1017900008B16D1C05E0AD1C03E0216815F8010BD4
:1017A0004860E08C0028D8D14B46002240212046DA
:1017B000009700F0E2FE08B10320CCE7202084F877
:1017C000390084F838800020C5E70220C3E770475D
:1017D000FEE710B50021092000F0E4F907210B20F5
:1017E00000F0E0F901210A2000F0DCF901210C20D1
:1017F00000F0D8F9BDE81040FEF7CABD0D4F0E4EFF
:101800004FF4FA787878B97808420ED0002445462B
:1018100034600220FEF758FE641CAC42F8DD3560EF
:101820000220FEF751FE6D1EF9D5012001F026FBC6
:10183000E8E7000010000020340401402DE9F04FDB
:1018400087B014216846FEF765FD4348002401680F
:1018500041F080010160016801F08001059101689B
:1018600041F001010160016801F001010591016889
:1018700041F010010160016801F01001059101685B
:1018800041F002010160016801F002010591016867
:1018900041F008010160016801F00801059101684B
:1018A00041F0040101600068012200F00400DFF84B
:1018B000AC909502059029464846FEF7FBFE6E0067
:1018C000002231464846FEF7F5FEDFF894A0EF000F
:1018D000002239465046FEF7EDFEDFF888B048F2A8
:1018E0000108002241465846FEF7E4FE0095012516
:1018F000CDE90154694648460394FEF7F7FD00968A
:10190000CDE90154694648460395FEF7EFFD2803EB
:10191000CDE90004694650460294FEF7E7FD0097C2
:10192000CDE90154694650460394FEF7DFFDCDF83A
:101930000080CDE90154694658460394FEF7D6FD70
:101940001C20CDE90004694658460294FEF7CEFDFE
:1019500007B0BDE8F08F00003038024000100240B0
:1019600000040240000C02400D480C494FF4007284
:1019700001604FF4827141604FF4004181600021A9
:10198000C1600161C0E905121022C0E9072141626E
:1019900081620A21C162FFF7DDB90000003C00400E
:1019A000D800002010B592B000240F941C2108A884
:1019B0001094FEF7AFFC20216846FEF7ABFC1A48F6
:1019C000184901606321C0E9011440F24F11C0E9D8
:1019D000031444618461FFF7BAFC0F940FA9124805
:1019E0001094FFF707FB6020CDE908040A940B94DC
:1019F0000C940D94002208A90B480E94FFF73FFCAD
:101A000000944FF40050CDE90440029401940394F3
:101A1000694605480794FFF7C3FA0348FFF7ECFB54
:101A200012B010BD000001403001002010B592B08E
:101A300000240F941C2108A81094FEF76BFC2021B1
:101A40006846FEF767FC1A48184901600921C0E999
:101A5000011440F28F61C0E9031444618461FFF70F
:101A600076FC0F940FA912481094FFF7C3FA602078
:101A7000CDE908040A940B940C940D94002208A953
:101A80000B480E94FFF7FBFB00944FF40050CDE998
:101A90000440029401940394694605480794FFF7B3
:101AA0007FFA0348FFF7A8FB12B010BD0004014005
:101AB00070010020FEE7704738B504461248134B0A
:101AC0000068B0FBF3F04FF47A73584300906068FD
:101AD000B0F5827F0DD10B46009200228021204676
:101AE00000F016F870B1606D40F0200060650320D2
:101AF00038BD009830B1401E009020688068C04317
:101B00000006F6D5002038BD5000002000366E01DA
:101B10002DE9F0411D4617460E460446DDF81880B3
:101B200008E0681C06D0FEF7CBFDA0EB0800A84239
:101B30000BD255B12068806836EA000030D0002012
:101B4000B842EED10020BDE8F0812068416821F064
:101B5000E00141606068B0F5827F0BD1A068B0F50C
:101B6000004F02D0B0F5806F04D12068016821F0E9
:101B700040010160A06AB0F5005F09D120680168EA
:101B800021F4005101602068016841F400510160B6
:101B9000012084F85100002084F850000320D2E78F
:101BA0000120CDE72DE9F0410F4F0C4606460022FB
:101BB00001213846FEF77EFD0C4D012229462E708C
:101BC00041F2883633460A48FFF73AF92C7033461B
:101BD000012229460648FFF733F93846BDE8F041AF
:101BE00001221146FEF766BD000C02400A000020EB
:101BF000D8000020044CA0780028FCD001F00AFE98
:101C0000012001F03BF9F6E710000020674C08B511
:101C10004FF4FA77012504F1090A4FF0000840F665
:101C2000B83B3846FEF750FCA078617888435BD01B
:101C3000E0680C2800D1E560E0680D280DD2DFE8EF
:101C400000F00C07096A6C6E70727476787A7C000A
:101C5000042000E0052001F0F5F8C82301224FF42C
:101C6000FA610020009500F0A5F8514E4FF49660FF
:101C700030600022C82339461046009500F09AF8DB
:101C80004FF496703060C823012239460020009539
:101C900000F090F84FF42F703060C82301224FF409
:101CA0007A710020009500F085F84FF46170306083
:101CB000002240F2DC59C82349461046009500F046
:101CC00079F8C82030600346002249461046CDF816
:101CD000008000F06FF84FF416703060E068401C30
:101CE000E0605846FEF7F0FB6078A178084258D0D3
:101CF000342001F0A7F8C82301225E46594600208F
:101D0000009500F057F83046FEF7DEFB2748C01C70
:101D10000178A1B118E008209DE709209BE70A207F
:101D200099E70D2097E70F2095E7142093E71720F8
:101D300091E718208FE71A208DE725208BE741785F
:101D400011B98078392812D91848801D017821B935
:101D5000417811B98078392809D99AF8001050468D
:101D6000B9B94178A9B99AF80200392811D80023E5
:101D70001A4619461846CDF8008000F01BF83620A8
:101D800001F060F800F052FC4FF4FA60FEF79CFBA3
:101D900007E00022C82331461046CDF8008000F04D
:101DA00009F8012001F06AF83BE70000100000206C
:101DB000340401402DE9F05F1B4D17460C46824666
:101DC0004FF400689B460022414628460A9EFEF7D3
:101DD00071FC4FF48069002249462846FEF76AFCF0
:101DE000012F01D017B106E0012200E00022494690
:101DF0002846FEF75FFC51460C48FFF7E5FAC8207D
:101E00006043FEF7D3FA51460848FFF7FFFA4EB198
:101E1000002241462846FEF74DFC5846BDE8F05FDB
:101E2000FEF752BB0122F4E700100240300100200F
:101E300010B5502080F31188BFF34F8FBFF36F8F21
:101E400002F0C0FA18B104494FF080500860002039
:101E500080F3118810BD000004ED00E030B593B0B0
:101E600030216846FEF756FA14210CA8FEF752FA04
:101E700019480025016841F080510160006800F0B8
:101E8000805011901548016841F48041016000685C
:101E9000022400F480401190012000900004019081
:101EA0008001CDE9064008200890A820CDE909046A
:101EB00004200B906846FEF7BFFD0CA90F2081E8B7
:101EC00031004FF4A0500F90E002109005210CA8B3
:101ED000FEF7B4FC13B030BD403802400070004043
:101EE0001048016841F4700101600F48016841F039
:101EF000010101600C4A00210832116002680B4B9D
:101F00001A400260031D0A4A1A60026822F4802205
:101F1000026005480C3001600249580680390860AB
:101F20007047000088ED00E000380240FFFFF6FE39
:101F3000103000240148FFF7ACB800003002002048
:101F4000F0B50268254C264D264E274F274B4FF003
:101F5000804CA04209D0604507D0A84205D0B042CD
:101F600003D0B84201D0984204D122F0700E4A68E2
:101F700042EA0E02A0421BD0604519D0A84217D0F9
:101F8000B04215D0B84213D0984211D0184DA84293
:101F90000ED0184DA8420BD0174DA84208D0174DAF
:101FA000A84205D0164DA84202D0164DA84203D132
:101FB00022F44075CA682A434D6922F080022A4300
:101FC00002608A68C2620A688262A04201D09842B6
:101FD00001D10969016301214161F0BD00000140A7
:101FE0000004004000080040000C004000040140D4
:101FF00000400140004401400048014000180040FA
:10200000001C00400020004010B501F01F0301211A
:10201000046A99408C430462016A9A401143016248
:1020200010BD0000F0B5026A22F001020262036AEC
:1020300042688469124E24F073050C682C4323F027
:1020400002058B682B430D4DA84201D0B04205D14B
:1020500023F00807CB683B4323F00403A84201D0D8
:10206000B04205D14D6922F4407215438A692A4372
:1020700042608461496841630362F0BD0000014031
:1020800000040140F0B5026A22F010020262026A06
:10209000436884690D6824F4E64444EA05248D68A5
:1020A00022F0200242EA05120F4D104EA84201D044
:1020B000B04206D1CF6822F0800242EA071222F035
:1020C0004002A84201D0B04207D14D6923F44063D9
:1020D00043EA85038D6943EA850343608461496867
:1020E00081630262F0BD0000000001400004014075
:1020F000F0B5026A22F480720262026A4368C4691F
:1021000022F4007224F073050C68124E2C438D6883
:1021100042EA05220E4DA84201D0B04206D1CF6856
:1021200022F4006242EA072222F48062A84201D02F
:10213000B04207D14D6923F4405343EA05138D693A
:1021400043EA05134360C4614968C1630262F0BD9C
:10215000000001400004014030B5026A22F48052C0
:102160000262046A4268C3690D6823F4E64343EAE5
:1021700005238D6824F4005444EA0534084DA84230
:1021800002D0084DA84204D14D6922F4804242EAAF
:1021900085124260C36149680164046230BD000079
:1021A000000001400004014010B5806B0021C18592
:1021B000C184FFF761F910BD0168CA6822F490720A
:1021C000CA6001684A6922F001024A61202180F850
:1021D0003A10704710B590F83A10222901D0022029
:1021E00010BD8168B1F5805F11D0016900290168D7
:1021F0001FD0496801F07F03816A4A1C82620B701C
:10220000C18D491E0904090CC18518D02BE0026953
:10221000816A002A0268526805D0D2B20A80816AB7
:10222000491C8162ECE7C2F308020A80816A891CBA
:10223000F7E74A68816A4B1C83620A70E0E701682D
:10224000CA6822F02002CA600168CA6822F480725B
:10225000CA6001684A6922F001024A61202180F8BF
:102260003A10FFF756FA002010BD00002DE9F041AA
:10227000044600680169E26821F44051114301619C
:102280002169A068E2690843616911432268084333
:10229000D16849F20C6399430143D16020684169D8
:1022A000A26921F4407111434161E2696425B2F5EC
:1022B000004F9748974922684FF032083FD08A4232
:1022C00001D082427CD1FEF781FB00EBC00101EB23
:1022D000001061688900B0FBF1F6FEF777FB00EBB8
:1022E000C00101EB001061688900B0FBF1F0B0FBA8
:1022F000F5F06FF01801484306EB800108EB011080
:10230000B0FBF5F000F0F006FEF760FB00EBC0015B
:1023100001EB001061688900B0FBF1F0B0FBF5F053
:1023200006EB0016FEF752FB00EBC00101EB0010BC
:1023300061688900B0FBF1F7FEF748FBD2E08A4202
:1023400001D082423DD1FEF741FB00EBC00101EB21
:10235000001061684900B0FBF1F0B0FBF5F0060138
:10236000FEF734FB00EBC00101EB0010616849008F
:10237000B0FBF1F7FEF72AFB00EBC00101EB001008
:1023800061684900B0FBF1F0B0FBF5F06FF01801A7
:10239000484307EB800108EBC100B0FBF5F000F00B
:1023A000F80006EB4006FEF711FB00EBC00101EB65
:1023B000001061684900B0FBF1F7FEF707FB3CE055
:1023C00055E0FEF7F3FA00EBC00101EB0010616885
:1023D0004900B0FBF1F0B0FBF5F00601FEF7E6FABC
:1023E00000EBC00101EB001061684900B0FBF1F7A0
:1023F000FEF7DCFA00EBC00101EB00106168490058
:10240000B0FBF1F0B0FBF5F06FF01801484307EBBB
:10241000800108EBC100B0FBF5F000F0F80006EB1E
:102420004006FEF7C3FA00EBC00101EB0010616843
:102430004900B0FBF1F7FEF7B9FA00EBC00101EB80
:10244000001061684900B0FBF1F0B0FBF5F06FF0EF
:102450001801484307EB800108EBC100B0FBF5F021
:1024600000F00700216830448860BDE8F081FEF785
:102470009DFA00EBC00101EB001061688900B0FB20
:10248000F1F6FEF793FA00EBC00101EB0010616872
:102490008900B0FBF1F0B0FBF5F06FF01801484394
:1024A00006EB800108EB0110B0FBF5F000F0F00640
:1024B000FEF77CFA00EBC00101EB001061688900B7
:1024C000B0FBF1F0B0FBF5F006EB0016FEF76EFA8C
:1024D00000EBC00101EB001061688900B0FBF1F76F
:1024E000FEF764FA00EBC00101EB0010616889009F
:1024F000B0FBF1F0B0FBF5F06FF01801484307EBCB
:10250000800108EB0110B0FBF5F000F00F00A9E727
:10251000001401400010014090F83910212901D029
:10252000022070478168B1F5805F016A0BD04A1CB8
:102530000262026809785160C18C491E0904090CC5
:10254000C1840ED017E009880268C1F30801516008
:1025500001690029016A02D0491C0162ECE7891C6B
:10256000FBE70168CA6822F08002CA600068C1689F
:1025700041F04001C160002070472DE9F0419846CC
:1025800017460E460446069D1DE0681C1BD02DB163
:10259000FEF796F8A0EB0800A84214D92068C1689D
:1025A00021F4D071C1602068416921F001014161CD
:1025B000202084F8390084F83A00002084F838009C
:1025C0000320BDE8F0812068006836EA000004D0EE
:1025D0000020B842D9D00020F3E70120F9E700003D
:1025E0000148FEF74BBF0000F0010020FEE709079D
:1025F000090E002804DB00F1E02080F80014704789
:1026000000F00F0000F1E02080F8141D704702E098
:1026100008C8121F08C1002AFAD17047704700206D
:1026200001E001C1121F002AFBD1704710B5002143
:102630000120FFF7B7FA00210220FFF7B3FA0021CB
:102640000320FFF7AFFA00210420FFF7ABFA812146
:102650000520FFF7A7FA42210620FFF7A3FA3C2145
:102660000720FFF79FFA18210820FFF79BFA03487D
:102670008078BDE81040FDF727BF00000A00002069
:1026800010B500210120FFF78DFA78210220FFF715
:1026900089FA7C210320FFF785FA7C210420FFF7CB
:1026A00081FA7C210520FFF77DFA7C210620FFF7C7
:1026B00079FA78210720FFF775FA00210820FFF743
:1026C00071FA7E4CA078FDF7FFFE00210120FFF794
:1026D00069FAF0210220FFF765FAF8210320FFF7DD
:1026E00061FAF8210420FFF75DFAF8210520FFF7D1
:1026F00059FAF8210620FFF755FAF0210720FFF7D5
:1027000051FA00210820FFF74DFAA078FDF7DCFE12
:1027100000210120FFF746FAE0210220FFF742FAEC
:10272000F0210320FFF73EFAF0210420FFF73AFAE8
:10273000F0210520FFF736FAF0210620FFF732FAE4
:10274000E0210720FFF72EFA00210820FFF72AFAE0
:10275000A078FDF7B9FE00210120FFF723FAC02180
:102760000220FFF71FFAE0210320FFF71BFAE02108
:102770000420FFF717FAE0210520FFF713FAE02104
:102780000620FFF70FFAC0210720FFF70BFA002100
:102790000820FFF707FA4FF47A70FDF795FE002145
:1027A0000120FFF7FFF9E0210220FFF7FBF9F021FC
:1027B0000320FFF7F7F9F0210420FFF7F3F9F021E8
:1027C0000520FFF7EFF9F0210620FFF7EBF9E021F4
:1027D0000720FFF7E7F900210820FFF7E3F9A078C9
:1027E000FDF772FE00210120FFF7DCF9F021022045
:1027F000FFF7D8F9F8210320FFF7D4F9F8210420D6
:10280000FFF7D0F9F8210520FFF7CCF9F8210620D1
:10281000FFF7C8F9F0210720FFF7C4F900210820CD
:10282000FFF7C0F9A078FDF74FFE00210120FFF768
:10283000B9F978210220FFF7B5F97C210320FFF7D1
:10284000B1F97C210420FFF7ADF97C210520FFF7C9
:10285000A9F97C210620FFF7A5F978210720FFF7C9
:10286000A1F900210820FFF79DF9A078FDF72CFEC3
:1028700000210120FFF796F93C210220FFF792F991
:102880007E210320FFF78EF97E210420FFF78AF9CD
:102890007E210520FFF786F97E210620FFF782F9C9
:1028A0003C210720FFF77EF900210820FFF77AF985
:1028B000A078BDE81040FDF707BE00000A00002028
:1028C00010B500210120FFF76DF91F210220FFF74D
:1028D00069F93F210320FFF765F93F210420FFF745
:1028E00061F93F210520FFF75DF93F210620FFF741
:1028F00059F91F210720FFF755F900210820FFF79C
:1029000051F97E4CA078FDF7DFFD00210120FFF793
:1029100049F90F210220FFF745F91F210320FFF796
:1029200041F91F210420FFF73DF91F210520FFF782
:1029300039F91F210620FFF735F90F210720FFF78E
:1029400031F900210820FFF72DF9A078FDF7BCFD33
:1029500000210120FFF726F907210220FFF722F9C5
:102960000F210320FFF71EF90F210420FFF71AF9AA
:102970000F210520FFF716F90F210620FFF712F9A6
:1029800007210846FFF70EF900210820FFF70AF992
:10299000A078FDF799FD00210120FFF703F903213D
:1029A0000220FFF7FFF807210320FFF7FBF80721BC
:1029B0000420FFF7F7F807210520FFF7F3F80721B8
:1029C0000620FFF7EFF803210720FFF7EBF80021BF
:1029D0000820FFF7E7F84FF47A70FDF775FD002146
:1029E0000120FFF7DFF807210220FFF7DBF80F21B6
:1029F0000320FFF7D7F80F210420FFF7D3F80F21AA
:102A00000520FFF7CFF80F210620FFF7CBF80721AD
:102A10000846FFF7C7F800210820FFF7C3F8A078A1
:102A2000FDF752FD00210120FFF7BCF80F21022025
:102A3000FFF7B8F81F210320FFF7B4F81F21042087
:102A4000FFF7B0F81F210520FFF7ACF81F21062083
:102A5000FFF7A8F80F210720FFF7A4F800210820AE
:102A6000FFF7A0F8A078FDF72FFD00210120FFF768
:102A700099F81F210220FFF795F83F210320FFF767
:102A800091F83F210420FFF78DF83F210520FFF743
:102A900089F83F210620FFF785F81F210720FFF75F
:102AA00081F800210820FFF77DF8A078FDF70CFDE4
:102AB00000210120FFF776F83C210220FFF772F891
:102AC0007E210320FFF76EF87E210420FFF76AF8CD
:102AD0007E210520FFF766F87E210620FFF762F8C9
:102AE0003C210720FFF75EF800210820FFF75AF885
:102AF000A078BDE81040FDF7E7BC00000A00002008
:102B000010B500210120FFF74DF83C210220FFF70E
:102B100049F87E210320FFF745F87E210420FFF7C6
:102B200041F87E210520FFF73DF87E210620FFF7C2
:102B300039F83C210720FFF735F800210820FFF77E
:102B400031F86C4CA078FDF7BFFC00210120FFF7A5
:102B500029F800210220FFF725F87E210320FFF746
:102B600021F87E210420FFF71DF87E210520FFF7C4
:102B700019F87E210620FFF715F800210720FFF73E
:102B800011F800210820FFF70DF8A078FDF79CFC54
:102B900000210120FFF706F800210220FFF702F8CC
:102BA00000210320FEF7FEFF7E210420FEF7FAFF3E
:102BB0007E210520FEF7F6FF00210620FEF7F2FF3A
:102BC00000210720FEF7EEFF00210820FEF7EAFFB4
:102BD000A078FDF779FC00210120FEF7E3FF00213A
:102BE0000220FEF7DFFF00210320FEF7DBFF0021BC
:102BF0000420FEF7D7FF00210520FEF7D3FF0021B8
:102C00000620FEF7CFFF00210720FEF7CBFF0021B3
:102C10000820FEF7C7FFA078FDF756FC0021012031
:102C2000FEF7C0FF00210220FEF7BCFF00210320B9
:102C3000FEF7B8FF7E210420FEF7B4FF7E210520B9
:102C4000FEF7B0FF00210620FEF7ACFF00210720B1
:102C5000FEF7A8FF00210820FEF7A4FFA078FDF7EB
:102C600033FC00210120FEF79DFF00210220FEF72A
:102C700099FF7E210320FEF795FF7E210420FEF7B9
:102C800091FF7E210520FEF78DFF7E210620FEF7B5
:102C900089FF00210720FEF785FF00210820FEF7AD
:102CA00081FFA078FDF710FC00210120FEF77AFFDC
:102CB0003C210220FEF776FF7E210320FEF772FF03
:102CC0007E210420FEF76EFF7E210520FEF76AFFBD
:102CD0007E210620FEF766FF3C210720FEF762FFFB
:102CE00000210820FEF75EFFBDE810404FF4FA60B7
:102CF000FDF7EABB0A0000200122AEB0D102444831
:102D0000FDF7D8FCFDF7EAFCFDF764FBFFF7A6F83A
:102D1000FEF794FDFEF746FEFEF788FE3E483D496D
:102D2000002401604FF41651C0E901140C25C46061
:102D3000C0E904458461C461FEF728FCFEF714FE77
:102D400035483649403001604FF4E131C0E90114A3
:102D5000C460C0E904458461C461FEF717FC3049D2
:102D6000A82048632F494FF4167008604FF47A701A
:102D7000FDF7AAFB284800214038FEF725FB26492D
:102D80000922E43901F59270FEF79AFC00F090F800
:102D9000242225496846FDF7A4FA6A460021234803
:102DA00000F0C2F8224C204924222061243109A8D5
:102DB000FDF797FA09AA00211E4800F0B5F81A4954
:102DC00060612422483112A8FDF78BFA12AA002173
:102DD000194800F0A9F81449A06124226C311BA8FD
:102DE000FDF77FFA1BAA0021144800F09DF80E4958
:102DF000E0612422903124A8FDF773FA24AA00216F
:102E00000F4800F091F8206200F06EF8FEE7000035
:102E10000010024000100140B001002000440040BA
:102E2000000001403404014008470008F51B000879
:102E3000100000200D1C000875040008FD17000894
:102E40000104000810B50B4C4FF47A730A22A179E3
:102E50000144A171217A081A207221460648FEF722
:102E600059FC6420FDF730FB0020A071E92020729E
:102E700010BD000000000020B001002010B5EFF3ED
:102E8000058149B9EFF3108131B908490968022970
:102E900005D1EFF3118111B16FF0050403E00024B7
:102EA00008B100F067FE204610BD0000A40000201D
:102EB000EFF3058058B9EFF3108040B9094908686D
:102EC000022801D030B109E0EFF3118030B16FF08A
:102ED0000500704701200860002070474FF0FF3068
:102EE00070470000A400002010B5EFF3058060B922
:102EF000EFF3108048B90B490868022802D0012876
:102F000006D00BE0EFF3118040B16FF0050010BD6B
:102F10000220086000F096FE002010BD4FF0FF3048
:102F200010BD0000A4000020F0B585B04FEA0103F9
:102F30004FF00004EFF305810394A1BBEFF3108180
:102F400089BB21490968022902D1EFF3118151BBE4
:102F500048B3802618218DF8104004AD42B317689D
:102F600007B13D4697691FB139467F1E382F02D2FF
:102F70001779FF0702D0002005B0F0BD576907B1EF
:102F8000BE08D2F808C0BCF1000F0DD0D4685C2C8C
:102F900018D312693AB137B18DE806103246294686
:102FA00001F0D1F903900DE0D7685FB912694AB911
:102FB00003AACDE90012B2B2294601F097F901281F
:102FC00000D003940398D7E7A40000202DE9F04136
:102FD000134C0F46054666692068001D00F09AFCF8
:102FE000681C07D137B12168BDE8F0410D48091DC3
:102FF00000F0E0BC20683544B5424560216805D248
:10300000A068BDE8F041091D00F0BCBC6068091D66
:1030100000F0B8FC206B854200D22563BDE8F0814A
:1030200054000020600700202DE9F041054600F023
:10303000CDFC2D4C2069401C206120682B4F10B125
:10304000E06930B32BE025602069012827D10026F4
:1030500006EB860007EB800000F086FC761C382E1D
:10306000F6D3234800F080FC2148143000F07CFCAB
:103070001F48283000F078FC1D483C3000F074FCFC
:103080001B48503000F070FC194860601430A0609C
:1030900005E02068E96AC06A884200D82560E06AD5
:1030A000401CE0626864E86AA169884200D9A061B6
:1030B00000EB800007EB8000291D00F07BFC00F096
:1030C000A5FCE06900280CD02068E96AC06A884243
:1030D00007D208494FF080500860BFF34F8FBFF30D
:1030E0006F8FBDE8F081000054000020B002002086
:1030F0001007002004ED00E038B500F067FC104C2C
:10310000A068C8B90F4800F02FFC0E48143000F03A
:103110002BFC0C482060143060600A4B00202833E0
:10312000009003F1500210210A2000F083FEA060FD
:1031300010B105A100F0E8FCBDE8384000F066BC25
:103140009000002074070020546D725100000000B0
:1031500030B4026C0B46002A0BD0C1681144C16028
:103160004468A14201D30168C16030BC1846FDF734
:10317000B8B830BC70472DE9F041856B174604465E
:103180000026026C82B1C7B1E068FDF7AAF8E168D9
:10319000206C091AE1602268914202D26168081A23
:1031A000E060022F16D017E02068A8B9606801F02F
:1031B0006DF90646002060600EE0A068FDF791F80A
:1031C000216CA0680844A0606168884204D320682C
:1031D000A06001E005B16D1E6D1CA5633046BDE821
:1031E000F08110B5044690F8590058B101280CD070
:1031F00002280FD0502080F31188BFF34F8FBFF308
:103200006F8FFEE7206B00F015FC2046BDE81040F4
:1032100000F010BC10BD000010484FF47051420780
:1032200006D0C01D0D4920F00700411AC1F57051AC
:103230000B4A00230144C2E900030839103A21F087
:10324000070111604B600B600B1AC0E9001393601B
:103250004FF000405360D06070470000440F0020E2
:10326000B8000020144E154CA6F29C474FF0805831
:10327000DFF84C9012E000BF00F0A8FBF068C568D2
:10328000281D00F047FB2069401E2061E068401EB9
:10329000E06000F0BBFB2846FFF7A3FFE0680028D2
:1032A000EAD138680128F9D9C9F80080BFF34F8FF7
:1032B000BFF36F8FF2E700004C070020540000209E
:1032C00004ED00E070B51D46049C51B1C4F8002027
:1032D000C4E90F010121204600F0E0FD84F84C50C4
:1032E00070BD2460F4E72DE9F0470E46DDE909845E
:1032F0001746824691009946089DA522206BFDF74E
:1033000002F86FF00301206B01EB8701084420F005
:103310000707780707D0502080F31188BFF34F8F3D
:10332000BFF36F8FFEE72218315C82F83410315CF6
:1033300011B1401C1028F6D3002684F84360382DC4
:1033400000D33725E562C4E91356201D00F017FBB2
:1033500004F1180000F013FB2461C5F13800646229
:10336000A061666584F858604A465146384600F0C8
:103370003BFA2060B8F1000F01D0C8F80040BDE86A
:10338000F087000030B5114900E011460A6882421A
:10339000FBD34B685C18844203D1406818444860F2
:1033A000084643681C18944209D1084C103C246814
:1033B000A24209D052681A4442600A681268026048
:1033C000814200D0086030BD0460F9E7B8000020F9
:1033D00070B5002441600B4D0061914206D8D11AAE
:1033E0008269914206D2011D686807E09A4203D2C1
:1033F000994201D3012403E0011D286800F0C2FABC
:10340000204670BD9000002010B5044600F0DEFAA2
:10341000A06B28B15FF0000400F0F8FA204610BD60
:103420000124F9E730B589B0304D55E00498002803
:1034300006DADDE90601059A9047049800284BDB7F
:10344000069C606910B1201D00F064FA02A800F02B
:10345000B9F8024604980A283ED2DFE800F00505D4
:10346000053D263705053D260598A169034601441B
:103470002046FFF7ADFF00B3616A20468847E06948
:10348000012829D1002000900598A1690023421845
:103490001946204601F004F978B9502080F31188CC
:1034A000BFF34F8FBFF36F8FFEE70598A06128B180
:1034B000811813462046FFF78BFF0DE0502080F364
:1034C0001188BFF34F8FBFF36F8FFEE794F82C0086
:1034D00010B9204600F0AEFA002204A9A86800F056
:1034E0002FFE0028A2D109B030BD000090000020BE
:1034F0002DE9FC410F46054600F0E8FB01A800F06D
:1035000061F80446019818B101F038F8BDE8FC8173
:10351000224EAFB170680068A8B30027291B3A4655
:10352000B06800F005FB01F029F80028EED11C4935
:103530004FF080500860BFF34F8FBFF36F8FE5E708
:10354000A542EBD801F01AF830682746C068C46875
:10355000201D00F0DFF9E069012810D1A0692B4699
:1035600041193A462046FFF733FF40B10020034699
:10357000014600902A46204601F092F820B1616A87
:1035800020468847C2E707E0502080F31188BFF348
:103590004F8FBFF36F8FFEE70127BFE7900000203A
:1035A00004ED00E006484168096829B14168C9682E
:1035B000C9684968016370474FF0FF31FAE70000BE
:1035C0005400002070B5054600F0F6FE064E044695
:1035D0003069844203D200F009F8012000E00020A5
:1035E00028602046346170BD90000020F8B5194D68
:1035F0001FE0C068C4680668201D00F08BF9616A8E
:1036000020468847E069012813D1A0693044B042C0
:1036100006D924616060211D286800F0B3F908E034
:1036200000200346014600903246204601F038F85B
:1036300038B1286801680029DBD16968C5E9001044
:10364000F8BD502080F31188BFF34F8FBFF36F8F09
:10365000FEE700009000002008484068401C4FF042
:10366000500080F3118804D0BFF34F8FBFF36F8FEA
:10367000FEE7BFF34F8FBFF36F8FFEE7C000002060
:10368000074C2068016841B1C0680021D0F80000F3
:10369000FFF72EFFFFF7C6FEF3E701210020F7E753
:1036A000900000202DE9F041044600F08FF994F9D4
:1036B000455004F1240609E0606A48B1304600F044
:1036C00025FF08B100F084FA6D1E6DB2002DF3DC09
:1036D0004FF0FF3684F8456000F098F900F076F975
:1036E00094F9445004F1100709E0206948B13846C4
:1036F00000F00CFF08B100F06BFA6D1E6DB2002DEA
:10370000F3DC84F84460BDE8F04100F07FB90000CC
:103710002DE9F0410546002700F0D8FA314E306817
:1037200008B9FFF779FDF06805424BD1C5B30835FC
:1037300068070ED005F00700C0F1080005446807CF
:1037400007D0502080F31188BFF34F8FBFF36F8FE6
:10375000FEE72DB37068854234D822481030014608
:103760000C6801E020460C466168A94202D221683B
:103770000029F7D131688C4224D0076821680160A4
:1037800060680837411B10290FD96019420708D01B
:10379000502080F31188BFF34F8FBFF36F8FFEE788
:1037A00010E041606560FFF7EDFD61687068401AE8
:1037B0007060B268904200D2B060F06801430020AF
:1037C000C4E9000100F0DAFE780707D0502080F34A
:1037D0001188BFF34F8FBFF36F8FFEE73846BDE808
:1037E000F0810000A800002010B5031F4FF0807486
:1037F0001C601B1F21F001011960191F044B0B6095
:1038000014390A60091F6FF0020244380A6010BDC3
:10381000593600082DE9F0413B48C08D20B90922F6
:103820003A493948FDF74CFF3848394C0021425C91
:103830006254491C0229FADD354D0021ED1C421865
:10384000D2786A54491C0229F9DD314E0021B61D97
:10385000421892797254491C0229F9DD2078002718
:10386000202800D127702878202800D12F703078A8
:10387000202800D137706078202800D167706878E0
:10388000202800D16F707078202800D17770607880
:10389000352800D867706878352800D86F70707840
:1038A000352800D8777009211848FCF733FD1849EE
:1038B0004FF4FA7843460122C91E1348FDF72AFF48
:1038C0006420FCF701FE12482178C01E21B96178FE
:1038D00011B9A17839290DD9297821B9697811B997
:1038E000A978392906D9317839B9717829B9B178E7
:1038F000392902D80121417000E047704046BDE8F7
:10390000F041FCF7E1BD0000F0010020CC000020F8
:1039100013000020D0E9013201699A60D0E9012347
:103920005A604A68824201D182684A60002202617C
:103930000868401E0860086870470000034B036079
:1039400003F15C0008608020106070478C08002044
:10395000044B036003F15C0008604FF4807010605A
:1039600070470000E80A002000F108014FF0FF3224
:10397000C0E90112C16001610021016070470021AE
:103980000161704730B50B685A1C02D000F1080283
:1039900002E0026904E02246546825689D42FAD993
:1039A00053684B6099608A60516008610168491CE6
:1039B000016030BD42684A6093688B6093685960CB
:1039C000916008610168491C01607047502080F3D4
:1039D0001188BFF34F8FBFF36F8F0A494868401CAF
:1039E000486001280CD10848006810F0FF0F07D08C
:1039F000502080F31188BFF34F8FBFF36F8FFEE726
:103A000070470000C000002004ED00E0084948684D
:103A100028B1401E486001D180F3118870475020C2
:103A200080F31188BFF34F8FBFF36F8FFEE7000065
:103A3000C000002070B5002827D0144DA0F1080464
:103A40006168E868014207D1502080F31188BFF314
:103A50004F8FBFF36F8FFEE722683AB1502080F39B
:103A60001188BFF34F8FBFF36F8FFEE78143616013
:103A700000F02CF960686968084468602046FFF728
:103A800081FCBDE8704000F079BD70BDA800002049
:103A90004FF0E02000210161816105494FF47A7205
:103AA0000968B1FBF2F1491E4161072101617047CC
:103AB0005000002010B5FCF7CDFB114910280ED3A3
:103AC00000F1E02090F8F0030A78904207D25020ED
:103AD00080F31188BFF34F8FBFF36F8FFEE7094864
:103AE0000068896800F4E060884207D9502080F3BC
:103AF0001188BFF34F8FBFF36F8FFEE710BD00003B
:103B0000C00000200CED00E010B5084B002200BF03
:103B100053F832401CB1521C082AF9D310BD43F8A7
:103B2000321003EBC201486010BD0000700200209B
:103B300070B515460E460446FFF748FF94F9441049
:103B40000020491C01D184F8440094F94510491C17
:103B500001D184F84500FFF759FFA06B28B92A4628
:103B6000314604F1240000F051F82046BDE87040D1
:103B7000FFF798BD10B5020014D00F48806B38B124
:103B8000502080F31188BFF34F8FBFF36F8FFEE794
:103B900000F09CF800211046FFF718FA00F0EEFC48
:103BA000002807D105494FF080500860BFF34F8FC0
:103BB000BFF36F8F10BD00005400002004ED00E043
:103BC00002498A6A026049694160704754000020D6
:103BD00001490120486270475400002010B50C468E
:103BE00050B1094909681831FFF7CCFE2046BDE8FD
:103BF00010400121FFF7EAB9502080F31188BFF38C
:103C00004F8FBFF36F8FFEE75400002070B514464E
:103C10000D4668B10A4909681831FFF7CBFE0CB1AF
:103C20004FF0FF3521462846BDE87040FFF7CEB97A
:103C3000502080F31188BFF34F8FBFF36F8FFEE7E3
:103C40005400002030B587B00024039405AA04A9CD
:103C500003A80494FFF772FEDDE903010094CDE9A7
:103C60000110002315A11748059A00F06CFB164DB2
:103C7000002868631FD000F0E3FC012809D0401C35
:103C800019D1502080F31188BFF34F8FBFF36F8F8E
:103C9000FEE7502080F31188BFF34F8FBFF36F8F83
:103CA0004FF0FF3028630120E8616C6107B0BDE888
:103CB000304000F045B807B030BD000049444C45E5
:103CC0000000000065320008540000200248816BAB
:103CD000491C81637047000054000020164810B54D
:103CE000816B11B10121416210BD002141628169E6
:103CF000124A01E0B9B1491E01EB810352F82330A9
:103D0000002BF7D001EB810302EB830202F10804E0
:103D100053685B685360A34201D15B685360DA6803
:103D20000260816110BD502080F31188BFF34F8F76
:103D3000BFF36F8FFEE7000054000020B0020020A8
:103D40001CB537480168374A914207D1502080F3AB
:103D50001188BFF34F8FBFF36F8FFEE700683149C3
:103D6000491E884207D1502080F31188BFF34F8F3E
:103D7000BFF36F8FFEE72C4908780190FF20087091
:103D800008788DF800009DF800009DF8002000F0F4
:103D9000F000904207D0502080F31188BFF34F8F7E
:103DA000BFF36F8FFEE79DF80000204B00F050003E
:103DB00018700720986005E09DF8002052008DF8EB
:103DC0000020401E9DF800201206F5D498600328BC
:103DD00007D0502080F31188BFF34F8FBFF36F8F50
:103DE000FEE74FF440709860019808700C4820304E
:103DF000016841F470010160016841F070410160A7
:103E0000FFF746FE00205860FCF7ECF9084801680F
:103E100041F040410160FCF7D1F900201CBD0000D9
:103E200000ED00E071C20F4100E400E0C00000209E
:103E300034EF00E038B5049D18B153B1CAB181B177
:103E400020E0502080F31188BFF34F8FBFF36F8FB6
:103E5000FEE7502080F31188BFF34F8FBFF36F8FC1
:103E6000FEE7502080F31188BFF34F8FBFF36F8FB1
:103E7000FEE739B1502080F31188BFF34F8FBFF3B5
:103E80006F8FFEE750241C46012384F846302B46F2
:103E90000094FFF717FA204638BD000070B50D46B4
:103EA000040025D0FFF792FDD4E90F20216802FB22
:103EB000001161600021A1632168A1600A46D4E974
:103EC0000F01401E00FB0121E16021464FF0FF3051
:103ED00001F8440F487004F110008DB1FFF744FD64
:103EE00004F12400FFF740FDFFF790FD012070BDB5
:103EF000502080F31188BFF34F8FBFF36F8FFEE721
:103F000021690029F0D000F001FB0028ECD0044921
:103F10004FF080500860BFF34F8FBFF36F8FE3E720
:103F200004ED00E02DE9FF4782B01D468A464FF0C0
:103F30000008040003D0BAF1000F08D011E05020AF
:103F400080F31188BFF34F8FBFF36F8FFEE7206CB4
:103F500038B1502080F31188BFF34F8FBFF36F8FBC
:103F6000FEE7022D0AD1E06B012807D0502080F334
:103F70001188BFF34F8FBFF36F8FFEE700F00EFA8B
:103F80003F4F4FF000094FF0805648B9049838B1C0
:103F9000502080F31188BFF34F8FBFF36F8FFEE780
:103FA000FFF714FDA06BE16B884207D3022D05D00B
:103FB0000498D0B1B8F1000F1AD01EE02A4651463D
:103FC0002046FFF7D8F8616A19B104F1240000F027
:103FD0009DFA20B13E60BFF34F8FBFF36F8FFFF7A5
:103FE00015FD012006B0BDE8F087FFF70FFD22E0C8
:103FF0006846FFF7E5FD4FF00108FFF707FDFFF703
:1040000065FEFFF7E3FC94F94400401C01D184F8FD
:10401000449094F94500401C01D184F84590FFF785
:10402000F5FC04A9684600F027F930B12046FFF7F7
:1040300039FB00F0A3FA0020D4E7FFF7C7FCA06B20
:10404000E16B884213D1FFF7E1FC04F11000049901
:10405000FFF7C4FD2046FFF725FB00F08FFA00288C
:104060009ED13E60BFF34F8FBFF36F8F98E7FFF78E
:10407000CDFC2046FFF716FB00F080FA90E7000029
:1040800004ED00E02DE9F0471F4690468946040004
:1040900003D0B9F1000F08D011E0502080F311884F
:1040A000BFF34F8FBFF36F8FFEE7206C38B1502006
:1040B00080F31188BFF34F8FBFF36F8FFEE7022F9E
:1040C0000AD1E06B012807D0502080F31188BFF39C
:1040D0004F8FBFF36F8FFEE7FFF7ECFC5020EFF33D
:1040E000118680F31188BFF34F8FBFF36F8FA06BE2
:1040F000E16B884206D3022F04D0002086F311889A
:10410000BDE8F08794F945503A4649462046FFF706
:1041100032F8681C04D06D1C84F845500120EDE78E
:10412000606A0028FAD004F1240000F0EFF90028BA
:10413000F4D0B8F1000FF1D00121C8F80010EDE77C
:104140002DE9F747002683B08A46040003D0BAF170
:10415000000F08D011E0502080F31188BFF34F8F7B
:10416000BFF36F8FFEE7206C38B1502080F31188C9
:10417000BFF34F8FBFF36F8FFEE700F00FF9DFF84B
:10418000F4804FF000094FF0805748B9059838B1D6
:10419000502080F31188BFF34F8FBFF36F8FFEE77E
:1041A000FFF714FCA56BC5B151462046FEF7D0FFC2
:1041B0006D1EA563206950B104F1100000F0A6F94E
:1041C00028B1C8F80070BFF34F8FBFF36F8FFFF7B0
:1041D0001DFC012006B0BDE8F087059808B11EB1AE
:1041E00006E0FFF713FC27E06846FFF7E9FC01262D
:1041F000FFF70CFCFFF76AFDFFF7E8FB94F94400BA
:10420000401C01D184F8449094F94500401C01D130
:1042100084F84590FFF7FAFB05A9684600F02CF8F2
:10422000002820460AD0FFF73DFA00F0A7F9204603
:10423000FFF7EAF80028B3D00020CBE7FFF7E4F857
:1042400090B104F124000599FFF7C8FC2046FFF760
:1042500029FA00F093F90028A2D1C8F80070BFF342
:104260004F8FBFF36F8F9BE72046FFF71BFA00F0DD
:1042700085F995E704ED00E02DE9F0410C460500D5
:1042800011D0C4B1FFF7A2FB174B5A696E682068C2
:10429000911B471C17D02F689B6A9F4219D09642EA
:1042A00017D8012410E0502080F31188BFF34F8FFE
:1042B000BFF36F8FFEE7502080F31188BFF34F8F5D
:1042C000BFF36F8FFEE70024FFF7A0FB2046BDE899
:1042D000F081884205D9401A20602846FFF770FC1B
:1042E000F1E700202060DCE7540000202DE9FF5FAB
:1042F0008346DDE90E87994616468A469000FFF709
:1043000007FA05001CD05C20FFF702FA040014D065
:104310000020256384F85900CDE90240CDE90087EB
:104320004B46324651465846FEF7DDFF2046FEF723
:104330007BFE012004B0BDE8F09F2846FFF77AFB22
:104340004FF0FF30F6E7F0B585B0DDE90B640A9D6C
:10435000A6B1DCB15C2700972663022684F8596079
:10436000002604AFCDE90246CDE90057FEF7BBFFBA
:104370002046FEF759FE049805B0F0BD502080F3AA
:104380001188BFF34F8FBFF36F8FFEE7502080F38C
:104390001188BFF34F8FBFF36F8FFEE70548C169E8
:1043A00019B1806B18B100207047012070470220BE
:1043B0007047000054000020014840697047000029
:1043C000540000202DE9F0412E4C0027A06B40B195
:1043D000206A401C2062606A00B101273846BDE8AF
:1043E000F0816669761C666113D16068006838B137
:1043F000502080F31188BFF34F8FBFF36F8FFEE71C
:104400006068A1686160A060A06A401CA062FFF7BC
:10441000C9F8206BDFF87080864209D360680068B5
:1044200080B16068C068C568686886420DD2206344
:104430002068C06A00EB800158F821000128CAD921
:104440000127C8E74FF0FF30F1E7281DFFF762FAB8
:10445000A86A18B105F11800FFF75CFAE86AA169CB
:10446000884200D9A06100EB800108EB8100291D82
:10447000FFF7A0FAE86A2168C96A8842CED301270B
:10448000CCE7000054000020B002002070B504000A
:104490004FF0000133D01B4D2868844207D05020D4
:1044A00080F31188BFF34F8FBFF36F8FFEE7206D4E
:1044B00038B1401E2065E36CE26A9A421FD040B1D9
:1044C0001DE0502080F31188BFF34F8FBFF36F8F33
:1044D000FEE7201DFFF71EFAE06CE062C0F1380035
:1044E000A061E06AA969884200D9A861064900EB89
:1044F000800001EB8000211DFFF75CFA01210846D6
:1045000070BD000054000020B002002070B5C068EB
:10451000C46854B104F118000646FFF7FBF9144DC6
:10452000A86B50B13146134815E0502080F3118834
:10453000BFF34F8FBFF36F8FFEE7201DFFF7EAF940
:10454000E06AA969884200D9A8610B4900EB8000A4
:1045500001EB8000211DFFF72DFAE06A2968C96A86
:10456000884202D90120686270BD002070BD000041
:104570005400002038070020B00200202DE9F04749
:104580002C4D00242746A86B38B1FFF71FFAA86B03
:10459000401EA863A86B40B146E0502080F311880C
:1045A000BFF34F8FBFF36F8FFEE72969224E0120C3
:1045B000D1B3A6F5916980463068E0B1F068C4686F
:1045C00004F11800FFF7A6F9201DFFF7A3F9E06A30
:1045D000A969884200D9A86100EB800109EB81003C
:1045E000211DFFF7E7F9E06A2968C96A8842E3D329
:1045F000C5F82480E0E70CB1FEF7D4FF2C6A4CB17B
:104600004FEA0806FFF7DEFE00B16E62641EF9D1C4
:1046100000202862686A38B1084901273807086015
:10462000BFF34F8FBFF36F8FFFF7F0F93846BDE848
:10463000F0870000540000203807002004ED00E05F
:1046400010B586B0FEF758FD114CA068B8B1002037
:104650000390049005AA04A903A8FFF779F9DDE9FE
:10466000032102208DE8070000230AA10B48059AC8
:10467000FFF769FEE06010B106B0012010BD5020C8
:1046800080F31188BFF34F8FBFF36F8FFEE70000F9
:1046900090000020546D722053766300813600082C
:1046A0002DE9FF411E46134602000A9D4FF000000F
:1046B00016D0144CA768002F0FD0CDE9001302923A
:1046C000062917DAFFF76AFE02284FF000030FD021
:1046D00000226946A068FFF725FC04B0BDE8F08120
:1046E000502080F31188BFF34F8FBFF36F8FFEE729
:1046F0002A46EEE70023324669463846FFF7C2FCF9
:10470000EBE7000090000020E047000800000000F8
:104710000000000000000000000000008000000019
:10472000180000000000000000000000E84700083A
:104730000000000000000000000000000000000079
:1047400080000000180000000000000000000000D1
:10475000DC4700080000000000000000000000002E
:1047600000000000800000001800000000000000B1
:1047700000000000D8470008000000000000000012
:104780000000000000000000800000001800000091
:104790000000000000000000D447000800000000F6
:1047A0000000000000000000000000008000000089
:1047B00018000000000000000000000000000000E1
:1047C00000000000010203040607080900000000C1
:1047D000010203044D5045004C65640045796500B5
:1047E0005363616E000000005374616E646279006F
:1047F0001048000800000020CC0000000E26000831
:10480000DC480008CC0000207C4E00001E2600087A
:104810007EFF0612000000FEE9EF00081400000011
:104820003100000000000000000000000100000056
:104830000000000000000000000000000000000078
:1048400000000000000000007EFF0612000001FED4
:10485000E8EF000001000000100000000000000070
:104860000024F40000000000000000000000000030
:104870000000000000000000000000000000000038
:104880000000000000000000000000000000000028
:104890000000000000000000000000000000000018
:1048A0000000000000000000000000000000000008
:1048B00000000000000000000000000000000000F8
:1048C00000000000000000000000000000000000E8
:0C48D00000000000AAAAAAAA0000000034
:040000050800018965
:00000001FF
