:020000040800F2
:10000000384F00205D020008A31A0008C11700083D
:10001000A11A00088D030008CD250008000000008B
:100020000000000000000000000000009D0100082A
:10003000FD03000800000000F9010008111E00087F
:1000400077020008770200087702000877020008AC
:10005000770200087702000877020008770200089C
:10006000770200087702000877020008770200088C
:10007000770200087702000877020008770200087C
:10008000770200087702000877020008770200086C
:10009000770200087702000877020008770200085C
:1000A000770200087702000877020008770200084C
:1000B000151F000877020008770200087702000881
:1000C000770200087702000877020008770200082C
:1000D0007702000877020008C125000877020008AF
:1000E000770200087702000877020008770200080C
:1000F00077020008770200087702000877020008FC
:1001000077020008770200087702000877020008EB
:1001100077020008770200087702000877020008DB
:1001200077020008770200087702000877020008CB
:1001300077020008770200087702000877020008BB
:1001400077020008770200087702000877020008AB
:10015000770200087702000877020008770200089B
:10016000770200087702000877020008770200088B
:1001700077020008770200087702000800000000FC
:100180007702000877020008DFF80CD000F0ECF8E6
:1001900000480047D92C0008384F00202C4B196824
:1001A0000868B0E8F04F80F30988BFF36F8F4FF015
:1001B000000080F3118870470000000008480068C4
:1001C000006880F308884FF0000080F3148862B65E
:1001D00061B6BFF34F8FBFF36F8F00DF00BF00BF6B
:1001E00008ED00E0DFF80C00016841F470010160E7
:1001F000704700BF88ED00E0EFF30980BFF36F8F19
:10020000134B1A681EF0100F08BF20ED108A20E96A
:10021000F04F106009B44FF0500080F31188BFF325
:100220004F8FBFF36F8F03F045FD4FF0000080F359
:10023000118809BC19680868B0E8F04F1EF0100F6B
:1002400008BFB0EC108A80F30988BFF36F8F704746
:1002500048000020EFF30580704700000648804703
:1002600006480047FEE7FEE7FEE7FEE7FEE7FEE79B
:10027000FEE7FEE7FEE7FEE7C11E00088901000871
:100280002DE9F05F0546002092469B4688460646CB
:10029000814640241BE0284641464746224600F05E
:1002A00053F853465A46C01A914110D31146184686
:1002B000224600F03AF82D1A67EB01084F46224615
:1002C0000120002100F031F817EB00094E41201EFB
:1002D000A4F10104DFDC484631462A464346BDE826
:1002E000F09F40EA01039B0703D009E008C9121FF1
:1002F00008C0042AFAD203E011F8013B00F8013BE0
:10030000521EF9D27047D2B201E000F8012B491E0B
:10031000FBD270470022F6E710B513460A460446A2
:100320001946FFF7F0FF204610BD202A04DB203AD3
:1003300000FA02F1002070479140C2F1200320FA38
:1003400003F3194390407047202A04DB203A21FA36
:1003500002F00021704721FA02F3D040C2F12002DE
:100360009140084319467047064C074D06E0E06887
:1003700040F0010394E8070098471034AC42F6D3EC
:10038000FFF706FFC8470008E8470008FEE700003F
:10039000054810B544780021204601F0F9FB641EA1
:1003A00014F0FF04F7D110BD00000020064A10B57C
:1003B00053680649064C0968B1FBF4F141435068A3
:1003C000C01A8842FBD310BD001000E0440000209A
:1003D00040420F0007480168C9010AD4016841F092
:1003E00080710160044800214160016841F0010111
:1003F00001607047FCED00E0001000E07047000075
:100400004FF40047DFF85880164C174D4FF4005951
:10041000FE10012002F01CFD3946404600F036F97E
:1004200060623146284600F031F90028F1D1A07809
:10043000394680F00100A070404600F02CF9494692
:10044000284600F028F9642000E00A2000F034F883
:100450003146284600F01AF90028DAD1F5E7000005
:10046000000C02400400002000040240084CA07868
:1004700061788843FBD002F033FB02F031FB02F0DD
:10048000EFF802F00DFA012002F0E2FCEFE70000C5
:100490000400002090F83510022903D08021416526
:1004A00001207047052180F835100068016821F0AF
:1004B000010101600020704770B5044600F0F8F8B3
:1004C0000546601C02D004480078044400F0F0F8AF
:1004D000401BA042FAD370BD380000202DE9F84F30
:1004E000DFF87CB100224FF001084FF0030A4FF013
:1004F0000F090BF1040E00BF0B6808FA02F4234049
:10050000A3426ED14D68022D01D0122D0ED1D50817
:1005100000EB850CDCF820505607F70E09FA07F6B9
:10052000B5430E69BE402E43CCF8206006685500E6
:100530000F790AFA05FC07F0030726EA0C06AF401C
:10054000374307604E68012E05D0022E03D0112ECE
:1005500001D0122E0ED18668CF6826EA0C06AF4075
:10056000374387604668A6430C79C4F3001494406F
:1005700034434460C6688C6826EA0C06AC403443B9
:10058000C4604C68E40065D5364C256845F4804568
:100590002560246822F0030504F480440094324C62
:1005A0002E19D6F8084895072F0F09FA07F5AC431E
:1005B0002E4DA84201D1002524E02D4DA84201D1A5
:1005C00001251FE02B4DA84201D102251AE02A4D3A
:1005D000A84201D1032515E0284DA84202D10425E7
:1005E00010E037E0264DA84201D105250AE0254D4F
:1005F000A84201D1062505E0234DA84201D10725D7
:1006000000E00825BD402543C6F80858DBF8004047
:100610005D464E689C43F60300D51C432C60DEF813
:10062000004075464E689C43B60300D51C432C60C1
:100630000B4D08352C684E689C43F60200D51C43D0
:100640002C60074D0C352C684E689C43B60200D5D3
:100650001C432C60521C102AFFF44EAFBDE8F88FEB
:10066000003C01404438024000300140000002409C
:100670000004024000080240000C0240001002404A
:100680000014024000180240001C024000690840AB
:1006900000D001207047426931EA020200D109040A
:1006A000816170470AB1816170470904FBE700006E
:1006B00001488068704700003800002002488168C7
:1006C0000278114481607047380000200B4810B553
:1006D000016841F400710160016841F480610160CA
:1006E000016841F480710160032000F08DF8002062
:1006F00000F006F800F03EF8002010BD003C02407B
:1007000010B5014688B000221C2000F05DF81C20C6
:1007100000F04CF814480024016841F00101016028
:10072000006805A900F001000690684600F016F97F
:1007300000F034F90D494000B0FBF1F10C484FF0E6
:100740008042491E026040F2E732C0E90324C0E95A
:10075000011400F068FC10B1012008B010BD04487D
:1007600000F07DFCF9E700004038024040420F00F5
:10077000240200200C4882B0016841F480410160ED
:10078000006800F4804000900748001F016841F0B5
:10079000805101600068002200F0805000900F211D
:1007A000901E02B000F010B844380240002809DB67
:1007B00000F01F02012191404009800000F1E0207B
:1007C000C0F8001170470000F0B40E4B1B680C46D7
:1007D000C3F30223C3F10705042D00D90425191D15
:1007E000072901D2002300E0DB1E012606FA05F1ED
:1007F000491E214099409E40761E16403143F0BC70
:1008000001F0E5BE0CED00E0064900F007020868C3
:100810004FF6FF03184040EA0220034A10430860E5
:10082000704700000CED00E00000FA052DE9F047EC
:100830000E46050065D0DFF81481D8F80000F7B245
:1008400000F00F00B04207D288F80070D8F800001E
:1008500000F00F00B04254D128683D4C810712D5FA
:10086000400703D5206840F4E05020602878000756
:1008700003D5206840F4604020602068A96820F01B
:10088000F000084320602878C0072DD03049686800
:100890000839012812D0022813D0032811D0096882
:1008A000890700292DDA216821F003010143216025
:1008B000FFF7FEFE814641F2883A0EE0096889039F
:1008C000EFE709688901ECE7FFF7F2FEA0EB090109
:1008D000514502D90320BDE8F0872068696800F01F
:1008E0000C00B0EB810FEFD1D8F80010404601F0BA
:1008F0000F01B14207D90770006800F00F00B04245
:1009000001D00120E7E72878400705D52068E9688D
:1009100020F4E050084320602878000706D52068BE
:10092000296920F4604040EAC100206000F056F8D8
:100930002168084AC1F30311515CC84006490860A8
:100940000020FFF7DDFE0020C5E70000003C02406C
:100950000838024094470008440000200F2202603B
:100960000C4A136803F003034360136803F0F003B9
:100970008360136803F4E053C36012684FF4E053DC
:1009800003EAD20202610448006800F00F00086028
:100990007047000008380240003C02400448054906
:1009A00000680968044AC1F38221515CC84070475D
:1009B0004400002008380240A447000804480549C4
:1009C00000680968044AC1F34231515CC84070476D
:1009D0004400002008380240A4470008104810B521
:1009E000006810F00C010F4818D0042916D008290F
:1009F00014D10B4C241F216801F03F0221682168AB
:100A00000023C1F38811A1FB0001FFF739FC216825
:100A1000C1F30141491C4900B0FBF1F010BD0000D9
:100A2000083802400024F4002DE9F84F050076D084
:100A30002878DFF8F8B2BE4CC00749D0DBF80010C8
:100A40005846C1F38101012908D00068C0F3810034
:100A500002280AD1201D0068400206D520688003C4
:100A600036D568680028E2D032E06868B0F5803F8B
:100A700010D0B0F5A02F206810D020F48030206076
:100A8000206820F4802020606868A0B1FFF710FE85
:100A900006460CE0206840F48030F4E740F4802003
:100AA0002060F7E7FFF704FE801B642873D82068F6
:100AB0008003F7D50CE0FFF7FBFD064605E000BF1D
:100AC000FFF7F6FD801B6428F0D820688003F7D478
:100AD0002878DFF8608280074FF000093ED5DBF808
:100AE0000010584611F00C0F09D00068C0F38100C7
:100AF00002280BD18D48001F0068400206D42068F0
:100B0000800715D5E868012809D111E0E868B8B177
:100B10000120C8F80000FFF7CBFD064605E002E122
:100B2000FFF7C6FD801B0228C0D820688007F7D5D4
:100B30002068296920F0F80040EAC10020600DE03B
:100B4000C8F80090FFF7B4FD064604E0FFF7B0FDDB
:100B5000801B02281FD820688007F7D42878000758
:100B600022D5724E744869696C3671B101210160F9
:100B7000FFF79EFD074604E0FFF79AFDC01B022821
:100B800009D830688007F7D50EE0C0F80090FFF76D
:100B90008FFD074605E083E0FFF78AFDC01B0228B2
:100BA0007ED830688007F7D42878400768D5DFF80A
:100BB0007CA100270AF1380ADAF80000C0000BD443
:100BC000DAF8001041F08051CAF80010DAF800009D
:100BD000012700F080500090584E3068C00510D4B6
:100BE000306840F480703060FFF762FD009005E0EF
:100BF000FFF75EFD0099401A022851D83068C00501
:100C0000F6D54A4EA868683601280FD00528306806
:100C100010D020F001003060306820F00400306017
:100C2000A868B8B1FFF744FD00900FE0306840F0CD
:100C30000100F4E740F004003060F7E7FFF738FD0B
:100C40000099411A41F28830814264D830688007A7
:100C5000F4D50EE0FFF72CFD009007E0FFF728FD2C
:100C60000099411A41F28830814254D83068800797
:100C7000F4D42FB1DAF8001021F08051CAF8001036
:100C8000A869C0B3DBF80010C1F3810102294AD082
:100C90000228484607D0C8F86000FFF709FD00E0C9
:100CA00039E005463AE04746C8F86000FFF700FD26
:100CB000064604E0FFF7FCFC801B02282BD82068C6
:100CC0008001F7D4D5E907010843A96A1C4A4908FD
:100CD00002EB01416A6A41EA8211084395F82C103F
:100CE00040EA01611148001F016001203866FFF7EA
:100CF000DFFC054605E014E0FFF7DAFC401B0228A4
:100D000009D820688001F7D50BE000BFFFF7D0FCC1
:100D1000401B022802D90320BDE8F88F206880011B
:100D2000F4D40020F8E70120F6E70000083802407C
:100D30000038024000004742800E474200700040E9
:100D40000000FFFF70B5040005D00025A56294F8EF
:100D5000510010B106E0012070BD84F850502046CB
:100D600000F030F8022084F851002068016821F07A
:100D700040010160D4E901010843D4E903121143A1
:100D8000084361690843218B01F400710843E1695C
:100D90000843216A0843A16A084321680860A069E2
:100DA000042101EA1040616A084321684860206814
:100DB000C16921F40061C1616565012084F85100B9
:100DC000002070BD10B586B0044614216846FFF7B8
:100DD000A1FA14492068884221D1134800210268F1
:100DE00042F400420260006800F4004005900E48A2
:100DF0001038026842F004020260006800F004004B
:100E000005904FF4E05000900220CDE9010103204D
:100E100003900620049069460448FFF75FFB06B084
:100E200010BD0000003C0040403802400008024075
:100E30002DE9F84F044690F8500000271D4616464D
:100E4000894601280DD04FF0010B84F850B0FFF710
:100E50002FFC804694F85100BA46012804D002279E
:100E60008EE00220BDE8F88FB9F1000F7DD0002E92
:100E70007BD0032084F85100C4F854A0C4F830900B
:100E8000A686E686C4F838A0A4F83CA0A4F83EA044
:100E9000C4F844A0C4F840A0A068B0F5004F04D145
:100EA0002068016841F480410160206801684906BA
:100EB00003D4016841F040010160E068B0F5006FC3
:100EC000606803D030B3012E24D040E008B1012E79
:100ED0001CD1206B21680088C86006E0206881680A
:100EE000890709D5216B0988C160206B801C2063AC
:100EF000E08E401EE08609E0FFF7DAFBA0EB080079
:100F0000A84202D3681C01D031E07DB3E08E0028F6
:100F1000E4D11FE0206B21680078087306E02068A8
:100F20008168890709D5216B09780173206B401C02
:100F30002063E08E401EE08609E0FFF7B9FBA0EBDE
:100F40000800A84202D3681C01D010E075B1E08E01
:100F50000028E4D142462946204600F0A3FD08B10E
:100F600020206065A06820B107E008E0FFE70327C4
:100F700006E02068C16880680090606D00B10127BC
:100F800084F851B084F850A038466BE7704770473A
:100F900010B590F83C20012A22D0012280F83C2094
:100FA000CA688C6822F4407222434C6822F4806242
:100FB00022430C6822F4006222430C6922F480521E
:100FC00022434C6922F400522243C969002322F4CF
:100FD00080420A4301684A6480F83C30002010BD1A
:100FE000022010BD70B590F83C20012A19D00124D0
:100FF00000F83C4F0222427050F83C3C5A689D6811
:1010000022F070060A684968324325F080052943BA
:101010005A6050F83C2C91604470002101700846E1
:1010200070BD022070BD10B5040003D094F83D00DF
:1010300010B107E0012010BD002084F83C002046DC
:1010400000F00CF8022084F83D00211D206800F01B
:1010500067FF012084F83D00002010BD7047016843
:10106000CA6842F00102CA600068816801F00701A5
:10107000062903D0016841F001010160002070479A
:10108000704770B50446006801694FF00005C94318
:10109000890715D4C168C943890711D4E91E0161C4
:1010A00001202077206880698007204602D0FFF762
:1010B000E7FF04E000F0DAF8204600F07BF925773E
:1010C00020680169C943490717D4C168C943490762
:1010D00013D46FF004010161022020772068806939
:1010E00010F4407F204602D0FFF7CAFF04E000F072
:1010F000BDF8204600F05EF9257720680169C943F4
:10110000090716D4C168C943090712D46FF0080152
:101110000161042020772068C0698007204602D042
:10112000FFF7AEFF04E000F0A1F8204600F042F91E
:10113000257720680169C943C90617D4C168C94326
:10114000C90613D46FF010010161082020772068D0
:10115000C06910F4407F204602D0FFF791FF04E001
:1011600000F084F8204600F025F925772068016911
:10117000C943C90708D1C168C943C90704D1891E39
:101180000161204600F068F920680169C943090639
:1011900009D4C168C943090605D46FF08001016113
:1011A0002046FFF7F3FE20680169C943490609D4C8
:1011B000C168C943490605D46FF04001016120466A
:1011C00000F051F920680169C94389060BD4C16850
:1011D000C943890607D46FF0200101612046BDE8AC
:1011E0007040FFF7D4BE70BD10B586B00446142120
:1011F0006846FFF78FF82368174C00201749022232
:10120000A34211D10B6843F010030B60096801F091
:101210001001059111020091CDE901200120CDE9D5
:10122000032069460E4813E00E4CA34212D10B680E
:1012300043F004030B60096801F0040105914021AB
:101240000091CDE9012003200390049069460648EF
:10125000FFF744F906B010BD0000014030380240ED
:10126000001002400004014000080240704770B5C1
:10127000044690F83C000D4601280DD0012684F864
:101280003C60022084F83D0042B1042A18D0082AAC
:101290002AD00C2A4DD139E0022070BD206800F020
:1012A000B1FE2068816941F008018161206881698F
:1012B00021F004018161206881692A69114311E0EC
:1012C000206800F0CFFE2068816941F400618161EF
:1012D0002068816921F480618161206881692A69BF
:1012E00041EA0221816124E0206800F0F1FE2068DB
:1012F000C16941F00801C1612068C16921F00401A0
:10130000C1612068C1692A69114311E0206800F0B9
:1013100013FF2068C16941F40061C1612068C1699F
:1013200021F48061C1612068C1692A6941EA022112
:10133000C16184F83D60002084F83C0070BD10B5A8
:10134000040003D094F83D0010B107E0012010BD67
:10135000002084F83C00204600F00CF8022084F8BD
:101360003D00211D206800F0DBFD012084F83D00D8
:10137000002010BD08B50C4A01680C48914207D105
:10138000016841F001010160006800F0010009E01E
:10139000074A914207D1016841F0020101600068EB
:1013A00000F00200009008BD0000014044380240F7
:1013B000000401407047000010B504460068012297
:1013C00000F012FE0B492068884202D00A49884288
:1013D00003D1416C41F4004141642068816801F00F
:1013E0000701062903D0016841F0010101600020D6
:1013F00010BD0000000001400004014010B504468B
:101400000068002200F0F0FD114841F2111221683D
:101410009310814202D00F48814209D1086A1042DC
:1014200006D1086A184203D1486C20F40040486491
:101430002068016A114206D1016A194203D101688C
:1014400021F001010160012084F83D00002010BD61
:1014500000000140000401400068B0F1804F01D15C
:10146000FFF72CB9704770477047000070B50268ED
:1014700004461068D168536910F00F0F50D003F084
:10148000010501F4907635435DD0C20705D0CA0549
:1014900003D5E26B42F00102E263420705D5DA07A9
:1014A00003D0E26B42F00202E263820705D5DA075D
:1014B00003D0E26B42F00402E263020705D5DA07CB
:1014C00003D0E26B42F00802E263E26B002A33D001
:1014D000800604D5880602D5204600F06BFE206801
:1014E0004069E16BC0F38010090700D428B320469F
:1014F00000F052FE2068416949061AD5416921F081
:1015000040014161606BA0B11B490165606BFEF752
:10151000C1FF002810D0606B016DBDE87040084726
:10152000830610D58B060ED52046BDE8704000F02E
:1015300041BE2046FFF798FF70BD2046FFF794FF9D
:101540000020E06370BD030606D50B0604D52046D7
:10155000BDE8704000F0D0BF4006F3D54806F1D595
:10156000D168204621F04001D160202184F8391053
:1015700000F025F970BD00008921000870B5040055
:1015800004D094F83900002510B106E0012070BDA8
:1015900084F83850204600F023F8242084F83900DD
:1015A0002068C16821F40051C160204600F04EFE61
:1015B0002068016921F4904101612068416921F0AE
:1015C0002A0141612068C16841F40051C160E563AE
:1015D000202084F8390084F83A00002070BD000013
:1015E000F0B587B0044614216846FEF793FE2B4BF6
:1015F00022682B49022401250326072729489A42FD
:1016000019D1274A1432136843F01003136012688B
:1016100002F0100205920A6842F001020A600968AD
:1016200001F00101059171028DE8F2006946FEF7B3
:1016300055FF07B0F0BD1C4B9A42FAD1184A103240
:10164000136843F400331360126802F40032059209
:101650000A6842F001020A600A6802F0010205927B
:101660000A6842F008020A60096801F00801059161
:1016700008218DE8F2006946FEF730FF20208DE852
:10168000F10069460948FEF729FF002206212620BD
:10169000FFF79AF82620FFF789F8CAE70010014003
:1016A000303802400000024000440040000C02407C
:1016B00090F83A30202B22D1F9B1F2B190F83830BD
:1016C000012B1CD081628285C2850021C163222248
:1016D00080F83A2080F838100168CA6842F48072B5
:1016E000CA6001684A6942F001024A610068C16843
:1016F00041F02001C16000207047012070470220A6
:10170000704770472DE9F843044690F839001F46AA
:1017100016460D46202850D1A5B19EB194F8380048
:1017200001284AD0012084F838004FF00008C4F89E
:101730003C80212084F83900FEF7BAFFA684814658
:10174000E68426E00120BDE8F883E08C401EE084BA
:10175000A0684B46B0F5805F4FF000024FF080016B
:101760002046009703D000F0F8FEE8B90DE000F045
:10177000F4FEC8B928882168C0F3080048602069D1
:1017800008B16D1C05E0AD1C03E0216815F8010BE4
:101790004860E08C0028D8D14B46002240212046EA
:1017A000009700F0DAFE08B10320CCE7202084F88F
:1017B000390084F838800020C5E70220C3E770476D
:1017C000FEE710B50021092000F0E2F907210B2007
:1017D00000F0DEF901210A2000F0DAF901210C20E5
:1017E00000F0D6F9BDE81040FEF7D2BD0D4F0E4E09
:1017F0004FF4FA787878B97808420ED0002445463C
:1018000034600220FEF758FE641CAC42F8DD3560FF
:101810000220FEF751FE6D1EF9D5012001F018FBE4
:10182000E8E7000004000020340401402DE9F04FF7
:1018300087B014216846FEF76DFD43480024016817
:1018400041F080010160016801F0800105910168AB
:1018500041F001010160016801F001010591016899
:1018600041F010010160016801F01001059101686B
:1018700041F002010160016801F002010591016877
:1018800041F008010160016801F00801059101685B
:1018900041F0040101600068012200F00400DFF85B
:1018A000AC909502059029464846FEF7FBFE6E0077
:1018B000002231464846FEF7F5FEDFF894A0EF001F
:1018C000002239465046FEF7EDFEDFF888B048F2B8
:1018D0000108002241465846FEF7E4FE0095012526
:1018E000CDE90154694648460394FEF7F7FD00969A
:1018F000CDE90154694648460395FEF7EFFD2803FC
:10190000CDE90004694650460294FEF7E7FD0097D2
:10191000CDE90154694650460394FEF7DFFDCDF84A
:101920000080CDE90154694658460394FEF7D6FD80
:101930001C20CDE90004694658460294FEF7CEFD0E
:1019400007B0BDE8F08F00003038024000100240C0
:1019500000040240000C02400C480B494FF4007296
:1019600001604FF48271416000218160C1600161BA
:10197000C0E905121022C0E90721416281620A21F3
:10198000C162FFF7DFB90000003C0040CC0000203E
:1019900010B592B000240F941C2108A81094FEF7F3
:1019A000B9FC20216846FEF7B5FC1A4818490160C9
:1019B0006321C0E9011440F24F11C0E903144461EE
:1019C0008461FFF7BCFC0F940FA912481094FFF735
:1019D00009FB6020CDE908040A940B940C940D9443
:1019E000002208A90B480E94FFF741FC00944FF425
:1019F0000050CDE9044002940194039469460548DF
:101A00000794FFF7C5FA0348FFF7EEFB12B010BDCD
:101A1000000001402401002010B592B000240F9472
:101A20001C2108A81094FEF775FC20216846FEF7DB
:101A300071FC1A48184901600921C0E9011440F2FB
:101A40008F61C0E9031444618461FFF778FC0F944F
:101A50000FA912481094FFF7C5FA6020CDE90804D9
:101A60000A940B940C940D94002208A90B480E9430
:101A7000FFF7FDFB00944FF40050CDE904400294C1
:101A800001940394694605480794FFF781FA0348D7
:101A9000FFF7AAFB12B010BD000401406401002052
:101AA000FEE7704738B504461248134B0068B0FB98
:101AB000F3F04FF47A73584300906068B0F5827F7A
:101AC0000DD10B46009200228021204600F016F82E
:101AD00070B1606D40F020006065032038BD009853
:101AE00030B1401E009020688068C0430006F6D5E3
:101AF000002038BD4400002000366E012DE9F04181
:101B00001D4617460E460446DDF8188008E0681C9E
:101B100006D0FEF7CDFDA0EB0800A8420BD255B1D0
:101B20002068806836EA000030D00020B842EED14C
:101B30000020BDE8F0812068416821F0E0014160AB
:101B40006068B0F5827F0BD1A068B0F5004F02D07D
:101B5000B0F5806F04D12068016821F04001016078
:101B6000A06AB0F5005F09D12068016821F4005136
:101B700001602068016841F400510160012084F88F
:101B80005100002084F850000320D2E70120CDE767
:101B90002DE9F0410F4F0C46064600220121384640
:101BA000FEF780FD0C4D012229462E7041F2883649
:101BB00033460A48FFF73CF92C7033460122294688
:101BC0000648FFF735F93846BDE8F04101221146D5
:101BD000FEF768BD000C024000000020CC00002091
:101BE00001F002FE012001F033F9F9E7674C08B576
:101BF0004FF4FA77012504F1090A4FF0000840F686
:101C0000B83B3846FEF758FCA078617888435BD033
:101C1000E0680C2800D1E560E0680D280DD2DFE80F
:101C200000F00C07096A6C6E70727476787A7C002A
:101C3000042000E0052001F0EFF8C82301224FF452
:101C4000FA610020009500F0A5F8514E4FF496601F
:101C500030600022C82339461046009500F09AF8FB
:101C60004FF496703060C823012239460020009559
:101C700000F090F84FF42F703060C82301224FF429
:101C80007A710020009500F085F84FF461703060A3
:101C9000002240F2DC59C82349461046009500F066
:101CA00079F8C82030600346002249461046CDF836
:101CB000008000F06FF84FF416703060E068401C50
:101CC000E0605846FEF7F8FB6078A178084258D0EB
:101CD000342001F0A1F8C82301225E4659460020B5
:101CE000009500F057F83046FEF7E6FB2748C01C89
:101CF0000178A1B118E008209DE709209BE70A20A0
:101D000099E70D2097E70F2095E7142093E7172018
:101D100091E718208FE71A208DE725208BE741787F
:101D200011B98078392812D91848801D017821B955
:101D3000417811B98078392809D99AF800105046AD
:101D4000B9B94178A9B99AF80200392811D8002305
:101D50001A4619461846CDF8008000F01BF83620C8
:101D600001F05AF800F052FC4FF4FA60FEF7A4FBC1
:101D700007E00022C82331461046CDF8008000F06D
:101D800009F8012001F064F83BE70000040000209E
:101D9000340401402DE9F05F1B4D17460C46824686
:101DA0004FF400689B460122414628460A9EFEF7F2
:101DB00079FC4FF48069002249462846FEF772FC00
:101DC000012F01D017B106E0012200E000224946B0
:101DD0002846FEF767FC51460C48FFF7EDFAC8208D
:101DE0006043FEF7E3FA51460848FFF707FB4EB1A0
:101DF000012241462846FEF755FC5846BDE8F05FF3
:101E0000FEF75ABB0022F4E7001002402401002034
:101E100010B5502080F31188BFF34F8FBFF36F8F41
:101E200002F0BCFA18B104494FF08050086000205D
:101E300080F3118810BD000004ED00E030B593B0D0
:101E400030216846FEF766FA14210CA8FEF762FA04
:101E500019480025016841F080510160006800F0D8
:101E6000805011901548016841F48041016000687C
:101E7000022400F4804011900120009000040190A1
:101E80008001CDE9064008200890A820CDE909048A
:101E900004200B906846FEF7C7FD0CA90F2081E8CF
:101EA00031004FF4A0500F90E002109005210CA8D3
:101EB000FEF7BCFC13B030BD40380240007000405B
:101EC0001048016841F4700101600F48016841F059
:101ED000010101600C4A00210832116002680B4BBD
:101EE0001A400260031D0A4A1A60026822F4802226
:101EF000026005480C3001600249580680390860CC
:101F00007047000088ED00E000380240FFFFF6FE59
:101F1000103000240148FFF7B4B80000240200206C
:101F2000F0B50268254C264D264E274F274B4FF023
:101F3000804CA04209D0604507D0A84205D0B042ED
:101F400003D0B84201D0984204D122F0700E4A6802
:101F500042EA0E02A0421BD0604519D0A84217D019
:101F6000B04215D0B84213D0984211D0184DA842B3
:101F70000ED0184DA8420BD0174DA84208D0174DCF
:101F8000A84205D0164DA84202D0164DA84203D152
:101F900022F44075CA682A434D6922F080022A4320
:101FA00002608A68C2620A688262A04201D09842D6
:101FB00001D10969016301214161F0BD00000140C7
:101FC0000004004000080040000C004000040140F4
:101FD000004001400044014000480140001800401A
:101FE000001C00400020004010B501F01F0301213B
:101FF000046A99408C430462016A9A401143016269
:1020000010BD0000F0B5026A22F001020262036A0C
:1020100042688469124E24F073050C682C4323F047
:1020200002058B682B430D4DA84201D0B04205D16B
:1020300023F00807CB683B4323F00403A84201D0F8
:10204000B04205D14D6922F4407215438A692A4392
:1020500042608461496841630362F0BD0000014051
:1020600000040140F0B5026A22F010020262026A26
:10207000436884690D6824F4E64444EA05248D68C5
:1020800022F0200242EA05120F4D104EA84201D064
:10209000B04206D1CF6822F0800242EA071222F055
:1020A0004002A84201D0B04207D14D6923F44063F9
:1020B00043EA85038D6943EA850343608461496887
:1020C00081630262F0BD0000000001400004014095
:1020D000F0B5026A22F480720262026A4368C4693F
:1020E00022F4007224F073050C68124E2C438D68A4
:1020F00042EA05220E4DA84201D0B04206D1CF6877
:1021000022F4006242EA072222F48062A84201D04F
:10211000B04207D14D6923F4405343EA05138D695A
:1021200043EA05134360C4614968C1630262F0BDBC
:10213000000001400004014030B5026A22F48052E0
:102140000262046A4268C3690D6823F4E64343EA05
:1021500005238D6824F4005444EA0534084DA84250
:1021600002D0084DA84204D14D6922F4804242EACF
:1021700085124260C36149680164046230BD000099
:10218000000001400004014010B5806B0021C185B2
:10219000C184FFF769F910BD0168CA6822F4907222
:1021A000CA6001684A6922F001024A61202180F870
:1021B0003A10704710B590F83A10222901D0022049
:1021C00010BD8168B1F5805F11D0016900290168F7
:1021D0001FD0496801F07F03816A4A1C82620B703C
:1021E000C18D491E0904090CC18518D02BE0026974
:1021F000816A002A0268526805D0D2B20A80816AD8
:10220000491C8162ECE7C2F308020A80816A891CDA
:10221000F7E74A68816A4B1C83620A70E0E701684D
:10222000CA6822F02002CA600168CA6822F480727B
:10223000CA6001684A6922F001024A61202180F8DF
:102240003A10FFF75EFA002010BD00002DE9F041C2
:10225000044600680169E26821F4405111430161BC
:102260002169A068E2690843616911432268084353
:10227000D16849F20C6399430143D16020684169F8
:10228000A26921F4407111434161E2696425B2F50C
:10229000004F9748974922684FF032083FD08A4252
:1022A00001D082427CD1FEF789FB00EBC00101EB3B
:1022B000001061688900B0FBF1F6FEF77FFB00EBD0
:1022C000C00101EB001061688900B0FBF1F0B0FBC8
:1022D000F5F06FF01801484306EB800108EB0110A0
:1022E000B0FBF5F000F0F006FEF768FB00EBC00174
:1022F00001EB001061688900B0FBF1F0B0FBF5F074
:1023000006EB0016FEF75AFB00EBC00101EB0010D4
:1023100061688900B0FBF1F7FEF750FBD2E08A421A
:1023200001D082423DD1FEF749FB00EBC00101EB39
:10233000001061684900B0FBF1F0B0FBF5F0060158
:10234000FEF73CFB00EBC00101EB001061684900A7
:10235000B0FBF1F7FEF732FB00EBC00101EB001020
:1023600061684900B0FBF1F0B0FBF5F06FF01801C7
:10237000484307EB800108EBC100B0FBF5F000F02B
:10238000F80006EB4006FEF719FB00EBC00101EB7D
:10239000001061684900B0FBF1F7FEF70FFB3CE06D
:1023A00055E0FEF7FBFA00EBC00101EB001061689D
:1023B0004900B0FBF1F0B0FBF5F00601FEF7EEFAD4
:1023C00000EBC00101EB001061684900B0FBF1F7C0
:1023D000FEF7E4FA00EBC00101EB00106168490070
:1023E000B0FBF1F0B0FBF5F06FF01801484307EBDC
:1023F000800108EBC100B0FBF5F000F0F80006EB3F
:102400004006FEF7CBFA00EBC00101EB001061685B
:102410004900B0FBF1F7FEF7C1FA00EBC00101EB98
:10242000001061684900B0FBF1F0B0FBF5F06FF00F
:102430001801484307EB800108EBC100B0FBF5F041
:1024400000F00700216830448860BDE8F081FEF7A5
:10245000A5FA00EBC00101EB001061688900B0FB38
:10246000F1F6FEF79BFA00EBC00101EB001061688A
:102470008900B0FBF1F0B0FBF5F06FF018014843B4
:1024800006EB800108EB0110B0FBF5F000F0F00660
:10249000FEF784FA00EBC00101EB001061688900CF
:1024A000B0FBF1F0B0FBF5F006EB0016FEF776FAA4
:1024B00000EBC00101EB001061688900B0FBF1F78F
:1024C000FEF76CFA00EBC00101EB001061688900B7
:1024D000B0FBF1F0B0FBF5F06FF01801484307EBEB
:1024E000800108EB0110B0FBF5F000F00F00A9E748
:1024F000001401400010014090F83910212901D04A
:10250000022070478168B1F5805F016A0BD04A1CD8
:102510000262026809785160C18C491E0904090CE5
:10252000C1840ED017E009880268C1F30801516028
:1025300001690029016A02D0491C0162ECE7891C8B
:10254000FBE70168CA6822F08002CA600068C168BF
:1025500041F04001C160002070472DE9F0419846EC
:1025600017460E460446069D1DE0681C1BD02DB183
:10257000FEF79EF8A0EB0800A84214D92068C168B5
:1025800021F4D071C1602068416921F001014161ED
:10259000202084F8390084F83A00002084F83800BC
:1025A0000320BDE8F0812068006836EA000004D00E
:1025B0000020B842D9D00020F3E70120F9E700005D
:1025C0000148FEF753BF0000E4010020FEE70907C1
:1025D000090E002804DB00F1E02080F800147047A9
:1025E00000F00F0000F1E02080F8141D704702E0B9
:1025F00008C8121F08C1002AFAD17047704700208E
:1026000001E001C1121F002AFBD1704710B5002163
:102610000120FFF7BDFA00210220FFF7B9FA0021DF
:102620000320FFF7B5FA00210420FFF7B1FA81215A
:102630000520FFF7ADFA42210620FFF7A9FA3C2159
:102640000720FFF7A5FA18210820FFF7A1FA034891
:102650008078BDE81040FDF72FBF0000000000208B
:1026600010B500210120FFF793FA78210220FFF72F
:102670008FFA7C210320FFF78BFA7C210420FFF7DF
:1026800087FA7C210520FFF783FA7C210620FFF7DB
:102690007FFA78210720FFF77BFA00210820FFF757
:1026A00077FA7E4CA078FDF707FF00210120FFF7A5
:1026B0006FFAF0210220FFF76BFAF8210320FFF7F1
:1026C00067FAF8210420FFF763FAF8210520FFF7E5
:1026D0005FFAF8210620FFF75BFAF0210720FFF7E9
:1026E00057FA00210820FFF753FAA078FDF7E4FE1F
:1026F00000210120FFF74CFAE0210220FFF748FA01
:10270000F0210320FFF744FAF0210420FFF740FAFC
:10271000F0210520FFF73CFAF0210620FFF738FAF8
:10272000E0210720FFF734FA00210820FFF730FAF4
:10273000A078FDF7C1FE00210120FFF729FAC02192
:102740000220FFF725FAE0210320FFF721FAE0211C
:102750000420FFF71DFAE0210520FFF719FAE02118
:102760000620FFF715FAC0210720FFF711FA002114
:102770000820FFF70DFA4FF47A70FDF79DFE002157
:102780000120FFF705FAE0210220FFF701FAF0210E
:102790000320FFF7FDF9F0210420FFF7F9F9F021FC
:1027A0000520FFF7F5F9F0210620FFF7F1F9E02108
:1027B0000720FFF7EDF900210820FFF7E9F9A078DD
:1027C000FDF77AFE00210120FFF7E2F9F021022057
:1027D000FFF7DEF9F8210320FFF7DAF9F8210420EA
:1027E000FFF7D6F9F8210520FFF7D2F9F8210620E6
:1027F000FFF7CEF9F0210720FFF7CAF900210820E2
:10280000FFF7C6F9A078FDF757FE00210120FFF77A
:10281000BFF978210220FFF7BBF97C210320FFF7E5
:10282000B7F97C210420FFF7B3F97C210520FFF7DD
:10283000AFF97C210620FFF7ABF978210720FFF7DD
:10284000A7F900210820FFF7A3F9A078FDF734FECF
:1028500000210120FFF79CF93C210220FFF798F9A5
:102860007E210320FFF794F97E210420FFF790F9E1
:102870007E210520FFF78CF97E210620FFF788F9DD
:102880003C210720FFF784F900210820FFF780F999
:10289000A078BDE81040FDF70FBE0000000000204A
:1028A00010B500210120FFF773F91F210220FFF767
:1028B0006FF93F210320FFF76BF93F210420FFF759
:1028C00067F93F210520FFF763F93F210620FFF755
:1028D0005FF91F210720FFF75BF900210820FFF7B0
:1028E00057F97E4CA078FDF7E7FD00210120FFF7A6
:1028F0004FF90F210220FFF74BF91F210320FFF7AB
:1029000047F91F210420FFF743F91F210520FFF796
:102910003FF91F210620FFF73BF90F210720FFF7A2
:1029200037F900210820FFF733F9A078FDF7C4FD3F
:1029300000210120FFF72CF907210220FFF728F9D9
:102940000F210320FFF724F90F210420FFF720F9BE
:102950000F210520FFF71CF90F210620FFF718F9BA
:1029600007210846FFF714F900210820FFF710F9A6
:10297000A078FDF7A1FD00210120FFF709F903214F
:102980000220FFF705F907210320FFF701F90721CE
:102990000420FFF7FDF807210520FFF7F9F80721CC
:1029A0000620FFF7F5F803210720FFF7F1F80021D3
:1029B0000820FFF7EDF84FF47A70FDF77DFD002158
:1029C0000120FFF7E5F807210220FFF7E1F80F21CA
:1029D0000320FFF7DDF80F210420FFF7D9F80F21BE
:1029E0000520FFF7D5F80F210620FFF7D1F80721C2
:1029F0000846FFF7CDF800210820FFF7C9F8A078B6
:102A0000FDF75AFD00210120FFF7C2F80F21022037
:102A1000FFF7BEF81F210320FFF7BAF81F2104209B
:102A2000FFF7B6F81F210520FFF7B2F81F21062097
:102A3000FFF7AEF80F210720FFF7AAF800210820C2
:102A4000FFF7A6F8A078FDF737FD00210120FFF77A
:102A50009FF81F210220FFF79BF83F210320FFF77B
:102A600097F83F210420FFF793F83F210520FFF757
:102A70008FF83F210620FFF78BF81F210720FFF773
:102A800087F800210820FFF783F8A078FDF714FDF0
:102A900000210120FFF77CF83C210220FFF778F8A5
:102AA0007E210320FFF774F87E210420FFF770F8E1
:102AB0007E210520FFF76CF87E210620FFF768F8DD
:102AC0003C210720FFF764F800210820FFF760F899
:102AD000A078BDE81040FDF7EFBC0000000000202A
:102AE00010B500210120FFF753F83C210220FFF729
:102AF0004FF87E210320FFF74BF87E210420FFF7DB
:102B000047F87E210520FFF743F87E210620FFF7D6
:102B10003FF83C210720FFF73BF800210820FFF792
:102B200037F86C4CA078FDF7C7FC00210120FFF7B7
:102B30002FF800210220FFF72BF87E210320FFF75A
:102B400027F87E210420FFF723F87E210520FFF7D8
:102B50001FF87E210620FFF71BF800210720FFF752
:102B600017F800210820FFF713F8A078FDF7A4FC60
:102B700000210120FFF70CF800210220FFF708F8E0
:102B800000210320FFF704F87E210420FFF700F85E
:102B90007E210520FEF7FCFF00210620FEF7F8FF4E
:102BA00000210720FEF7F4FF00210820FEF7F0FFC8
:102BB000A078FDF781FC00210120FEF7E9FF00214C
:102BC0000220FEF7E5FF00210320FEF7E1FF0021D0
:102BD0000420FEF7DDFF00210520FEF7D9FF0021CC
:102BE0000620FEF7D5FF00210720FEF7D1FF0021C8
:102BF0000820FEF7CDFFA078FDF75EFC0021012044
:102C0000FEF7C6FF00210220FEF7C2FF00210320CD
:102C1000FEF7BEFF7E210420FEF7BAFF7E210520CD
:102C2000FEF7B6FF00210620FEF7B2FF00210720C5
:102C3000FEF7AEFF00210820FEF7AAFFA078FDF7FF
:102C40003BFC00210120FEF7A3FF00210220FEF73C
:102C50009FFF7E210320FEF79BFF7E210420FEF7CD
:102C600097FF7E210520FEF793FF7E210620FEF7C9
:102C70008FFF00210720FEF78BFF00210820FEF7C1
:102C800087FFA078FDF718FC00210120FEF780FFE8
:102C90003C210220FEF77CFF7E210320FEF778FF17
:102CA0007E210420FEF774FF7E210520FEF770FFD1
:102CB0007E210620FEF76CFF3C210720FEF768FF0F
:102CC00000210820FEF764FFBDE810404FF4FA60D1
:102CD000FDF7F2BB00000020AEB0FDF7F7FCFDF7FA
:102CE00079FBFFF7ABF8FEF7A1FDFEF751FEFEF70B
:102CF00093FE3E483C494FF4E13500240160C0E9B1
:102D000001540C26C460C0E904468461C461FEF726
:102D100035FCFEF721FE3548354940300160C0E9F9
:102D20000154C460C0E904468461C461FEF726FC16
:102D30003049A820486330494FF416700860FEF708
:102D400040FDFDF725FB4FF47A70FDF7B5FB2748F2
:102D500000214038FEF730FB24490922E43901F50F
:102D60009270FEF7A5FC00F08DF8242223496846F6
:102D7000FDF7B7FA6A460021214800F0BFF8214C60
:102D80001E4924222061243109A8FDF7AAFA09AAC4
:102D900000211D4800F0B2F8184960612422483132
:102DA00012A8FDF79EFA12AA0021184800F0A6F812
:102DB0001249A06124226C311BA8FDF792FA1BAACC
:102DC0000021134800F09AF80C49E0612422903168
:102DD00024A8FDF786FA24AA00210E4800F08EF8F8
:102DE000206200F06BF8FEE700100140A401002013
:102DF000004400400000014034040140E046000867
:102E0000E11B000804000020ED1B00086D04000811
:102E1000ED1700080104000810B50B4C4FF47A734D
:102E20000A22E1790144E171617A081A607221464F
:102E30000648FEF767FC6420FDF73EFB0020E071CA
:102E4000E920607210BD00002C000020A4010020C9
:102E500010B5EFF3058149B9EFF3108131B9084995
:102E60000968022905D1EFF3118111B16FF0050452
:102E700003E0002408B100F069FE204610BD000008
:102E800098000020EFF3058058B9EFF3108040B9A7
:102E900009490868022801D030B109E0EFF3118038
:102EA00030B16FF0050070470120086000207047C6
:102EB0004FF0FF30704700009800002010B5EFF38E
:102EC000058060B9EFF3108048B90B490868022803
:102ED00002D0012806D00BE0EFF3118040B16FF073
:102EE000050010BD0220086000F098FE002010BD13
:102EF0004FF0FF3010BD000098000020F0B585B005
:102F00004FEA01034FF00004EFF305810394A1BBE6
:102F1000EFF3108189BB21490968022902D1EFF33F
:102F2000118151BB48B3802618218DF8104004ADA3
:102F300042B3176807B13D4697691FB139467F1EF6
:102F4000382F02D21779FF0702D0002005B0F0BD5C
:102F5000576907B1BE08D2F808C0BCF1000F0DD008
:102F6000D4685C2C18D312693AB137B18DE80610D9
:102F70003246294601F0D3F903900DE0D7685FB9D6
:102F800012694AB903AACDE90012B2B2294601F08A
:102F900099F9012800D003940398D7E798000020FE
:102FA0002DE9F041134C0F46054666692068001D67
:102FB00000F09CFC681C07D137B12168BDE8F041E6
:102FC0000D48091D00F0E2BC20683544B54245605B
:102FD000216805D2A068BDE8F041091D00F0BEBC23
:102FE0006068091D00F0BAFC206B854200D22563A1
:102FF000BDE8F08148000020540700202DE9F04191
:10300000054600F0CFFC2D4C2069401C2061206853
:103010002B4F10B1E06930B32BE025602069012807
:1030200027D1002606EB860007EB800000F088FC25
:10303000761C382EF6D3234800F082FC2148143049
:1030400000F07EFC1F48283000F07AFC1D483C3020
:1030500000F076FC1B48503000F072FC19486060AC
:103060001430A06005E02068E96AC06A884200D890
:103070002560E06A401CE0626864E86AA1698842F1
:1030800000D9A06100EB800007EB8000291D00F053
:103090007DFC00F0A7FCE06900280CD02068E96AFC
:1030A000C06A884207D208494FF080500860BFF3D9
:1030B0004F8FBFF36F8FBDE8F08100004800002004
:1030C000A40200200407002004ED00E038B500F061
:1030D00069FC104CA068C8B90F4800F031FC0E48DC
:1030E000143000F02DFC0C482060143060600A4B56
:1030F00000202833009003F1500210210A2000F034
:1031000085FEA06010B105A100F0EAFCBDE83840E2
:1031100000F068BC8400002068070020546D7251E4
:103120000000000030B4026C0B46002A0BD0C168CE
:103130001144C1604468A14201D30168C16030BC40
:103140001846FDF7CEB830BC70472DE9F041856BCD
:10315000174604460026026C82B1C7B1E068FDF74D
:10316000C0F8E168206C091AE1602268914202D23D
:103170006168081AE060022F16D017E02068A8B92D
:10318000606801F06FF90646002060600EE0A068FC
:10319000FDF7A7F8216CA0680844A0606168884228
:1031A00004D32068A06001E005B16D1E6D1CA5630D
:1031B0003046BDE8F08110B5044690F8590058B18A
:1031C00001280CD002280FD0502080F31188BFF3C3
:1031D0004F8FBFF36F8FFEE7206B00F017FC204688
:1031E000BDE8104000F012BC10BD000010484FF4C4
:1031F0007051420706D0C01D0D4920F00700411A4A
:10320000C1F570510B4A00230144C2E9000308399B
:10321000103A21F0070111604B600B600B1AC0E9F6
:10322000001393604FF000405360D060704700007F
:10323000380F0020AC000020144E154CA6F29C471D
:103240004FF08058DFF84C9012E000BF00F0AAFB6E
:10325000F068C568281D00F049FB2069401E206108
:10326000E068401EE06000F0BDFB2846FFF7A3FFCA
:10327000E0680028EAD138680128F9D9C9F8008047
:10328000BFF34F8FBFF36F8FF2E7000040070020BE
:103290004800002004ED00E070B51D46049C51B1CB
:1032A000C4F80020C4E90F010121204600F0E2FD2E
:1032B00084F84C5070BD2460F4E72DE9F0470E46C9
:1032C000DDE909841746824691009946089DA522AA
:1032D000206BFDF718F86FF00301206B01EB8701FD
:1032E000084420F00707780707D0502080F31188A2
:1032F000BFF34F8FBFF36F8FFEE72218315C82F868
:103300003410315C11B1401C1028F6D3002684F82B
:103310004360382D00D33725E562C4E91356201DDC
:1033200000F019FB04F1180000F015FB2461C5F151
:1033300038006462A061666584F858604A46514668
:10334000384600F03BFA2060B8F1000F01D0C8F811
:103350000040BDE8F087000030B5114900E011469B
:103360000A688242FBD34B685C18844203D14068F0
:1033700018444860084643681C18944209D1084C18
:10338000103C2468A24209D052681A4442600A687C
:1033900012680260814200D0086030BD0460F9E725
:1033A000AC00002070B5002441600B4D00619142DB
:1033B00006D8D11A8269914206D2011D686807E0D9
:1033C0009A4203D2994201D3012403E0011D2868E7
:1033D00000F0C4FA204670BD8400002010B50446F9
:1033E00000F0E0FAA06B28B15FF0000400F0FAFAF8
:1033F000204610BD0124F9E730B589B0304D55E0C5
:103400000498002806DADDE90601059A9047049839
:1034100000284BDB069C606910B1201D00F066FAA5
:1034200002A800F0B9F8024604980A283ED2DFE864
:1034300000F00505053D263705053D260598A169DF
:10344000034601442046FFF7ADFF00B3616A204602
:103450008847E069012829D1002000900598A169DA
:10346000002342181946204601F006F978B9502089
:1034700080F31188BFF34F8FBFF36F8FFEE705987E
:10348000A06128B1811813462046FFF78BFF0DE09D
:10349000502080F31188BFF34F8FBFF36F8FFEE78B
:1034A00094F82C0010B9204600F0B0FA002204A9CC
:1034B000A86800F031FE0028A2D109B030BD00009C
:1034C000840000202DE9FC410F46054600F0EAFB90
:1034D00001A800F061F80446019818B101F03AF82B
:1034E000BDE8FC81224EAFB170680068A8B3002728
:1034F000291B3A46B06800F007FB01F02BF80028C2
:10350000EED11C494FF080500860BFF34F8FBFF3DE
:103510006F8FE5E7A542EBD801F01CF8306827462D
:10352000C068C468201D00F0E1F9E069012810D1ED
:10353000A0692B4641193A462046FFF733FF40B1B8
:1035400000200346014600902A46204601F094F8E8
:1035500020B1616A20468847C2E707E0502080F327
:103560001188BFF34F8FBFF36F8FFEE70127BFE7CF
:103570008400002004ED00E006484168096829B194
:103580004168C968C9684968016370474FF0FF31F5
:10359000FAE700004800002070B5054600F0F8FE8C
:1035A000064E04463069844203D200F009F8012037
:1035B00000E0002028602046346170BD84000020B7
:1035C000F8B5194D1FE0C068C4680668201D00F0FA
:1035D0008DF9616A20468847E069012813D1A06906
:1035E0003044B04206D924616060211D286800F093
:1035F000B5F908E000200346014600903246204617
:1036000001F03AF838B1286801680029DBD169680F
:10361000C5E90010F8BD502080F31188BFF34F8F2B
:10362000BFF36F8FFEE70000840000200848406869
:10363000401C4FF0500080F3118804D0BFF34F8F2F
:10364000BFF36F8FFEE7BFF34F8FBFF36F8FFEE7C0
:10365000B4000020074C2068016841B1C068002117
:10366000D0F80000FFF72EFFFFF7C6FEF3E70121B9
:103670000020F7E7840000202DE9F041044600F027
:1036800091F994F9455004F1240609E0606A48B1C3
:10369000304600F027FF08B100F086FA6D1E6DB2CB
:1036A000002DF3DC4FF0FF3684F8456000F09AF906
:1036B00000F078F994F9445004F1100709E020690A
:1036C00048B1384600F00EFF08B100F06DFA6D1EEB
:1036D0006DB2002DF3DC84F84460BDE8F04100F0E9
:1036E00081B900002DE9F0410546002700F0DAFA23
:1036F000314E306808B9FFF779FDF06805424BD1CB
:10370000C5B3083568070ED005F00700C0F1080002
:103710000544680707D0502080F31188BFF34F8F0E
:10372000BFF36F8FFEE72DB37068854234D822480F
:10373000103001460C6801E020460C466168A94241
:1037400002D221680029F7D131688C4224D0076861
:103750002168016060680837411B10290FD9601982
:10376000420708D0502080F31188BFF34F8FBFF37A
:103770006F8FFEE710E041606560FFF7EDFD616867
:103780007068401A7060B268904200D2B060F06811
:1037900001430020C4E9000100F0DCFE780707D0F7
:1037A000502080F31188BFF34F8FBFF36F8FFEE778
:1037B0003846BDE8F08100009C00002010B5031FD2
:1037C0004FF080741C601B1F21F001011960191F4C
:1037D000044B0B6014390A60091F6FF00202443871
:1037E0000A6010BD2D3600082DE9F0473C48C08D19
:1037F00020B909223B493A48FDF75AFF39493A4C6A
:1038000000200A5C2254401C0228FADD364D0020BC
:10381000ED1C0A18D2782A54401C0228F9DD324ED9
:103820000020B61D0A1892793254401C0228F9DD96
:1038300021780020202900D120702978202900D16A
:1038400028703178202900D130706178202900D18A
:1038500060706978202900D168707178202900D1C2
:1038600070706178352900D860706978352900D882
:1038700068707178352900D870701B4F8046FF1E24
:103880004FF4FA79A7F8030078712880A870A7F898
:103890000900F8724B46012239461148FDF732FF04
:1038A000207820B9607810B9A07839280DD9287807
:1038B00020B9687810B9A878392806D9307838B98D
:1038C000707828B9B078392802D80120787001E0E2
:1038D00087F801804846BDE8F047FCF7EDBD0000E1
:1038E000E4010020C000002007000020D0E90132E0
:1038F00001699A60D0E901235A604A68824201D185
:1039000082684A60002202610868401E08600868F8
:1039100070470000034B036003F15C0008608020E7
:103920001060704780080020044B036003F15C00C6
:1039300008604FF48070106070470000DC0A0020BF
:1039400000F108014FF0FF32C0E90112C1600161CE
:1039500000210160704700210161704730B50B689C
:103960005A1C02D000F1080202E0026904E022467B
:10397000546825689D42FAD953684B6099608A6003
:10398000516008610168491C016030BD42684A60AD
:1039900093688B6093685960916008610168491C65
:1039A00001607047502080F31188BFF34F8FBFF341
:1039B0006F8F0A494868401C486001280CD10848AC
:1039C000006810F0FF0F07D0502080F31188BFF37C
:1039D0004F8FBFF36F8FFEE770470000B4000020E9
:1039E00004ED00E00849486828B1401E486001D154
:1039F00080F311887047502080F31188BFF34F8FF8
:103A0000BFF36F8FFEE70000B400002070B5002800
:103A100027D0144DA0F108046168E868014207D17D
:103A2000502080F31188BFF34F8FBFF36F8FFEE7F5
:103A300022683AB1502080F31188BFF34F8FBFF353
:103A40006F8FFEE78143616000F02CF96068696860
:103A5000084468602046FFF77FFCBDE8704000F036
:103A600079BD70BD9C0000204FF0E0200021016175
:103A7000816105494FF47A720968B1FBF2F1491E80
:103A800041610721016170474400002010B5FCF737
:103A9000E1FB114910280ED300F1E02090F8F0036B
:103AA0000A78904207D2502080F31188BFF34F8FDD
:103AB000BFF36F8FFEE709480068896800F4E06093
:103AC000884207D9502080F31188BFF34F8FBFF38E
:103AD0006F8FFEE710BD0000B40000200CED00E089
:103AE00010B5084B002200BF53F832401CB1521CE5
:103AF000082AF9D310BD43F8321003EBC201486025
:103B000010BD00006402002070B515460E46044644
:103B1000FFF748FF94F944100020491C01D184F8B4
:103B2000440094F94510491C01D184F84500FFF781
:103B300059FFA06B28B92A46314604F1240000F051
:103B400051F82046BDE87040FFF796BD10B5020061
:103B500014D00F48806B38B1502080F31188BFF328
:103B60004F8FBFF36F8FFEE700F09CF800211046E7
:103B7000FFF716FA00F0EEFC002807D105494FF0D8
:103B800080500860BFF34F8FBFF36F8F10BD0000F0
:103B90004800002004ED00E002498A6A0260496999
:103BA0004160704748000020014901204862704789
:103BB0004800002010B50C4650B109490968183179
:103BC000FFF7CCFE2046BDE810400121FFF7E8B921
:103BD000502080F31188BFF34F8FBFF36F8FFEE744
:103BE0004800002070B514460D4668B10A490968BE
:103BF0001831FFF7CBFE0CB14FF0FF3521462846B8
:103C0000BDE87040FFF7CCB9502080F31188BFF3B6
:103C10004F8FBFF36F8FFEE74800002030B587B0AD
:103C20000024039405AA04A903A80494FFF772FED4
:103C3000DDE903010094CDE90110002315A1174827
:103C4000059A00F06CFB164D002868631FD000F049
:103C5000E3FC012809D0401C19D1502080F31188C1
:103C6000BFF34F8FBFF36F8FFEE7502080F31188B3
:103C7000BFF34F8FBFF36F8F4FF0FF3028630120EA
:103C8000E8616C6107B0BDE8304000F045B807B0AE
:103C900030BD000049444C450000000039320008A6
:103CA000480000200248816B491C81637047000076
:103CB00048000020164810B5816B11B10121416206
:103CC00010BD002141628169124A01E0B9B1491E6B
:103CD00001EB810352F82330002BF7D001EB810375
:103CE00002EB830202F1080453685B685360A3424D
:103CF00001D15B685360DA680260816110BD5020B9
:103D000080F31188BFF34F8FBFF36F8FFEE7000082
:103D100048000020A40200201CB537480168374A3B
:103D2000914207D1502080F31188BFF34F8FBFF32A
:103D30006F8FFEE700683149491E884207D1502045
:103D400080F31188BFF34F8FBFF36F8FFEE72C49CD
:103D500008780190FF20087008788DF800009DF821
:103D600000009DF8002000F0F000904207D05020A5
:103D700080F31188BFF34F8FBFF36F8FFEE79DF87D
:103D80000000204B00F0500018700720986005E0FC
:103D90009DF8002052008DF80020401E9DF8002064
:103DA0001206F5D49860032807D0502080F31188BC
:103DB000BFF34F8FBFF36F8FFEE74FF440709860F3
:103DC000019808700C482030016841F470010160CE
:103DD000016841F070410160FFF746FE0020586025
:103DE000FCF700FA0848016841F040410160FCF727
:103DF000E5F900201CBD000000ED00E071C20F419C
:103E000000E400E0B400002034EF00E038B5049D89
:103E100018B153B1CAB181B120E0502080F31188AC
:103E2000BFF34F8FBFF36F8FFEE7502080F31188F1
:103E3000BFF34F8FBFF36F8FFEE7502080F31188E1
:103E4000BFF34F8FBFF36F8FFEE739B1502080F380
:103E50001188BFF34F8FBFF36F8FFEE750241C46CE
:103E6000012384F846302B460094FFF715FA2046CC
:103E700038BD000070B50D46040025D0FFF792FD57
:103E8000D4E90F20216802FB001161600021A163C9
:103E90002168A1600A46D4E90F01401E00FB012100
:103EA000E16021464FF0FF3001F8440F487004F103
:103EB00010008DB1FFF744FD04F12400FFF740FD31
:103EC000FFF790FD012070BD502080F31188BFF3F3
:103ED0004F8FBFF36F8FFEE721690029F0D000F00C
:103EE00001FB0028ECD004494FF080500860BFF37C
:103EF0004F8FBFF36F8FE3E704ED00E02DE9FF473D
:103F000082B01D468A464FF00008040003D0BAF183
:103F1000000F08D011E0502080F31188BFF34F8FBD
:103F2000BFF36F8FFEE7206C38B1502080F311880B
:103F3000BFF34F8FBFF36F8FFEE7022D0AD1E06B07
:103F4000012807D0502080F31188BFF34F8FBFF3B3
:103F50006F8FFEE700F00EFA3F4F4FF000094FF071
:103F6000805648B9049838B1502080F31188BFF3C7
:103F70004F8FBFF36F8FFEE7FFF714FDA06BE16B70
:103F8000884207D3022D05D00498D0B1B8F1000FB4
:103F90001AD01EE02A4651462046FFF7D6F8616A3D
:103FA00019B104F1240000F09DFA20B13E60BFF386
:103FB0004F8FBFF36F8FFFF715FD012006B0BDE8EF
:103FC000F087FFF70FFD22E06846FFF7E5FD4FF0B1
:103FD0000108FFF707FDFFF765FEFFF7E3FC94F923
:103FE0004400401C01D184F8449094F94500401CE1
:103FF00001D184F84590FFF7F5FC04A9684600F06C
:1040000027F930B12046FFF737FB00F0A3FA002074
:10401000D4E7FFF7C7FCA06BE16B884213D1FFF731
:10402000E1FC04F110000499FFF7C4FD2046FFF7FE
:1040300023FB00F08FFA00289ED13E60BFF34F8F24
:10404000BFF36F8F98E7FFF7CDFC2046FFF714FB17
:1040500000F080FA90E7000004ED00E02DE9F04761
:104060001F4690468946040003D0B9F1000F08D0DE
:1040700011E0502080F31188BFF34F8FBFF36F8F93
:10408000FEE7206C38B1502080F31188BFF34F8FCA
:10409000BFF36F8FFEE7022F0AD1E06B012807D034
:1040A000502080F31188BFF34F8FBFF36F8FFEE76F
:1040B000FFF7ECFC5020EFF3118680F31188BFF37B
:1040C0004F8FBFF36F8FA06BE16B884206D3022F37
:1040D00004D0002086F31188BDE8F08794F945509C
:1040E0003A4649462046FFF730F8681C04D06D1C5C
:1040F00084F845500120EDE7606A0028FAD004F109
:10410000240000F0EFF90028F4D0B8F1000FF1D04E
:104110000121C8F80010EDE72DE9F747002683B02C
:104120008A46040003D0BAF1000F08D011E05020F5
:1041300080F31188BFF34F8FBFF36F8FFEE7206CC2
:1041400038B1502080F31188BFF34F8FBFF36F8FCA
:10415000FEE700F00FF9DFF8F4804FF000094FF0B0
:10416000805748B9059838B1502080F31188BFF3C3
:104170004F8FBFF36F8FFEE7FFF714FCA56BC5B140
:1041800051462046FEF7CEFF6D1EA563206950B153
:1041900004F1100000F0A6F928B1C8F80070BFF3D0
:1041A0004F8FBFF36F8FFFF71DFC012006B0BDE8F6
:1041B000F087059808B11EB106E0FFF713FC27E071
:1041C0006846FFF7E9FC0126FFF70CFCFFF76AFDE4
:1041D000FFF7E8FB94F94400401C01D184F84490B7
:1041E00094F94500401C01D184F84590FFF7FAFB93
:1041F00005A9684600F02CF8002820460AD0FFF7F1
:104200003BFA00F0A7F92046FFF7E8F80028B3D002
:104210000020CBE7FFF7E2F890B104F12400059904
:10422000FFF7C8FC2046FFF727FA00F093F90028B3
:10423000A2D1C8F80070BFF34F8FBFF36F8F9BE719
:104240002046FFF719FA00F085F995E704ED00E044
:104250002DE9F0410C46050011D0C4B1FFF7A2FBD7
:10426000174B5A696E682068911B471C17D02F683E
:104270009B6A9F4219D0964217D8012410E0502023
:1042800080F31188BFF34F8FBFF36F8FFEE750208D
:1042900080F31188BFF34F8FBFF36F8FFEE70024C9
:1042A000FFF7A0FB2046BDE8F081884205D9401AFF
:1042B00020602846FFF770FCF1E700202060DCE773
:1042C000480000202DE9FF5F8346DDE90E8799460F
:1042D00016468A469000FFF705FA05001CD05C20C0
:1042E000FFF700FA040014D00020256384F8590079
:1042F000CDE90240CDE900874B463246514658464B
:10430000FEF7DBFF2046FEF779FE012004B0BDE892
:10431000F09F2846FFF77AFB4FF0FF30F6E7F0B545
:1043200085B0DDE90B640A9DA6B1DCB15C2700977E
:104330002663022684F85960002604AFCDE90246C0
:10434000CDE90057FEF7B9FF2046FEF757FE049867
:1043500005B0F0BD502080F31188BFF34F8FBFF33D
:104360006F8FFEE7502080F31188BFF34F8FBFF3AC
:104370006F8FFEE70548C16919B1806B18B1002045
:10438000704701207047022070470000480000205D
:104390000148406970470000480000202DE9F041C5
:1043A0002E4C0027A06B40B1206A401C2062606A3E
:1043B00000B101273846BDE8F0816669761C666168
:1043C00013D16068006838B1502080F31188BFF3C2
:1043D0004F8FBFF36F8FFEE76068A1686160A060D8
:1043E000A06A401CA062FFF7C7F8206BDFF870805E
:1043F000864209D36068006880B16068C068C5689B
:10440000686886420DD220632068C06A00EB800194
:1044100058F821000128CAD90127C8E74FF0FF301A
:10442000F1E7281DFFF762FAA86A18B105F1180034
:10443000FFF75CFAE86AA169884200D9A06100EB45
:10444000800108EB8100291DFFF7A0FAE86A2168C6
:10445000C96A8842CED30127CCE70000480000207B
:10446000A402002070B504004FF0000133D01B4DB2
:104470002868844207D0502080F31188BFF34F8F03
:10448000BFF36F8FFEE7206D38B1401E2065E36CEF
:10449000E26A9A421FD040B11DE0502080F311889B
:1044A000BFF34F8FBFF36F8FFEE7201DFFF71EFA9C
:1044B000E06CE062C0F13800A061E06AA96988425E
:1044C00000D9A861064900EB800001EB8000211DA6
:1044D000FFF75CFA0121084670BD0000480000208B
:1044E000A402002070B5C068C46854B104F118007B
:1044F0000646FFF7FBF9144DA86B50B1314613483F
:1045000015E0502080F31188BFF34F8FBFF36F8FFA
:10451000FEE7201DFFF7EAF9E06AA969884200D9A1
:10452000A8610B4900EB800001EB8000211DFFF723
:104530002DFAE06A2968C96A884202D901206862B6
:1045400070BD002070BD0000480000202C07002036
:10455000A40200202DE9F0472C4D00242746A86B2B
:1045600038B1FFF71FFAA86B401EA863A86B40B1D3
:1045700046E0502080F31188BFF34F8FBFF36F8F59
:10458000FEE72969224E0120D1B3A6F59169804644
:104590003068E0B1F068C46804F11800FFF7A6F9CC
:1045A000201DFFF7A3F9E06AA969884200D9A86134
:1045B00000EB800109EB8100211DFFF7E7F9E06ABC
:1045C0002968C96A8842E3D3C5F82480E0E70CB1C2
:1045D000FEF7D2FF2C6A4CB14FEA0806FFF7DEFE69
:1045E00000B16E62641EF9D100202862686A38B199
:1045F0000849012738070860BFF34F8FBFF36F8F5B
:10460000FFF7F0F93846BDE8F087000048000020C9
:104610002C07002004ED00E010B586B0FEF756FD33
:10462000114CA068B8B100200390049005AA04A919
:1046300003A8FFF779F9DDE9032102208DE80700DF
:1046400000230AA10B48059AFFF769FEE06010B14C
:1046500006B0012010BD502080F31188BFF34F8FAA
:10466000BFF36F8FFEE7000084000020546D7220BE
:1046700053766300553600082DE9FF411E46134668
:1046800002000A9D4FF0000016D0144CA768002FBE
:104690000FD0CDE900130292062917DAFFF76AFE60
:1046A00002284FF000030FD000226946A068FFF7F0
:1046B00025FC04B0BDE8F081502080F31188BFF3E1
:1046C0004F8FBFF36F8FFEE72A46EEE70023324697
:1046D00069463846FFF7C2FCEBE700008400002083
:1046E000B8470008000000000000000000000000C3
:1046F0000000000080000000180000000000000022
:1047000000000000C047000800000000000000009A
:104710000000000000000000800000001800000001
:104720000000000000000000B44700080000000086
:1047300000000000000000000000000080000000F9
:10474000180000000000000000000000B047000852
:104750000000000000000000000000000000000059
:1047600080000000180000000000000000000000B1
:10477000AC4700080000000000000000000000003E
:104780000000000080000000180000000000000091
:10479000000000000000000000000000010203040F
:1047A0000607080900000000010203044D504500FF
:1047B0004C656400457965005363616E000000003C
:1047C0005374616E64627900E847000800000020BD
:1047D000C0000000EE250008A8480008C000002026
:1047E000784E0000FE25000800081400310000008B
:1047F00000000000000000000100000000000000B8
:1048000000000000000000000000000000000000A8
:10481000000000007EFF0612000000FEE9EF00002D
:104820000100000010000000000000000024F4005F
:104830000000000000000000000000000000000078
:104840000000000000000000000000000000000068
:104850000000000000000000000000000000000058
:104860000000000000000000000000000000000048
:104870000000000000000000000000000000000038
:104880000000000000000000000000000000000028
:104890000000000000000000000000000000000018
:0848A000AAAAAAAA0000000068
:040000050800018965
:00000001FF
